{"contracts/SkillWager.sol":{"SkillWager":{"abi":[{"inputs":[],"stateMutability":"nonpayable","type":"constructor"},{"inputs":[{"internalType":"address","name":"owner","type":"address"}],"name":"OwnableInvalidOwner","type":"error"},{"inputs":[{"internalType":"address","name":"account","type":"address"}],"name":"OwnableUnauthorizedAccount","type":"error"},{"inputs":[],"name":"ReentrancyGuardReentrantCall","type":"error"},{"anonymous":false,"inputs":[{"indexed":true,"internalType":"uint256","name":"matchId","type":"uint256"}],"name":"DisputeStarted","type":"event"},{"anonymous":false,"inputs":[{"indexed":true,"internalType":"uint256","name":"matchId","type":"uint256"},{"indexed":true,"internalType":"address","name":"juror","type":"address"},{"indexed":false,"internalType":"enum SkillWager.Result","name":"vote","type":"uint8"}],"name":"JuryVoted","type":"event"},{"anonymous":false,"inputs":[{"indexed":true,"internalType":"uint256","name":"matchId","type":"uint256"}],"name":"MatchCancelled","type":"event"},{"anonymous":false,"inputs":[{"indexed":true,"internalType":"uint256","name":"matchId","type":"uint256"},{"indexed":true,"internalType":"address","name":"playerA","type":"address"},{"indexed":false,"internalType":"uint256","name":"wager","type":"uint256"},{"indexed":false,"internalType":"uint256","name":"bond","type":"uint256"}],"name":"MatchCreated","type":"event"},{"anonymous":false,"inputs":[{"indexed":true,"internalType":"uint256","name":"matchId","type":"uint256"},{"indexed":true,"internalType":"address","name":"playerB","type":"address"}],"name":"MatchJoined","type":"event"},{"anonymous":false,"inputs":[{"indexed":true,"internalType":"uint256","name":"matchId","type":"uint256"},{"indexed":true,"internalType":"address","name":"winner","type":"address"}],"name":"MatchResolved","type":"event"},{"anonymous":false,"inputs":[{"indexed":true,"internalType":"address","name":"previousOwner","type":"address"},{"indexed":true,"internalType":"address","name":"newOwner","type":"address"}],"name":"OwnershipTransferred","type":"event"},{"anonymous":false,"inputs":[{"indexed":true,"internalType":"uint256","name":"matchId","type":"uint256"},{"indexed":true,"internalType":"address","name":"player","type":"address"},{"indexed":false,"internalType":"enum SkillWager.Result","name":"result","type":"uint8"}],"name":"ResultSubmitted","type":"event"},{"inputs":[],"name":"JURY_SIZE","outputs":[{"internalType":"uint256","name":"","type":"uint256"}],"stateMutability":"view","type":"function"},{"inputs":[],"name":"TIMEOUT_WINDOW","outputs":[{"internalType":"uint256","name":"","type":"uint256"}],"stateMutability":"view","type":"function"},{"inputs":[{"internalType":"address","name":"_juror","type":"address"}],"name":"addMockJuror","outputs":[],"stateMutability":"nonpayable","type":"function"},{"inputs":[{"internalType":"uint256","name":"_matchId","type":"uint256"}],"name":"claimTimeoutVictory","outputs":[],"stateMutability":"nonpayable","type":"function"},{"inputs":[{"internalType":"uint256","name":"_wagerAmount","type":"uint256"},{"internalType":"uint256","name":"_bondAmount","type":"uint256"}],"name":"createMatch","outputs":[],"stateMutability":"payable","type":"function"},{"inputs":[{"internalType":"uint256","name":"_matchId","type":"uint256"}],"name":"joinMatch","outputs":[],"stateMutability":"payable","type":"function"},{"inputs":[{"internalType":"uint256","name":"_matchId","type":"uint256"},{"internalType":"enum SkillWager.Result","name":"_vote","type":"uint8"}],"name":"juryVote","outputs":[],"stateMutability":"nonpayable","type":"function"},{"inputs":[],"name":"matchIdCounter","outputs":[{"internalType":"uint256","name":"","type":"uint256"}],"stateMutability":"view","type":"function"},{"inputs":[{"internalType":"uint256","name":"","type":"uint256"}],"name":"matches","outputs":[{"internalType":"uint256","name":"id","type":"uint256"},{"internalType":"address","name":"playerA","type":"address"},{"internalType":"address","name":"playerB","type":"address"},{"internalType":"uint256","name":"wagerAmount","type":"uint256"},{"internalType":"uint256","name":"bondAmount","type":"uint256"},{"internalType":"enum SkillWager.MatchState","name":"state","type":"uint8"},{"internalType":"enum SkillWager.Result","name":"resultA","type":"uint8"},{"internalType":"enum SkillWager.Result","name":"resultB","type":"uint8"},{"internalType":"uint256","name":"lastActionTimestamp","type":"uint256"},{"internalType":"uint256","name":"votesForA","type":"uint256"},{"internalType":"uint256","name":"votesForB","type":"uint256"},{"internalType":"bool","name":"cancelVoteA","type":"bool"},{"internalType":"bool","name":"cancelVoteB","type":"bool"}],"stateMutability":"view","type":"function"},{"inputs":[{"internalType":"uint256","name":"","type":"uint256"}],"name":"mockJurors","outputs":[{"internalType":"address","name":"","type":"address"}],"stateMutability":"view","type":"function"},{"inputs":[],"name":"owner","outputs":[{"internalType":"address","name":"","type":"address"}],"stateMutability":"view","type":"function"},{"inputs":[],"name":"renounceOwnership","outputs":[],"stateMutability":"nonpayable","type":"function"},{"inputs":[{"internalType":"uint256","name":"_matchId","type":"uint256"},{"internalType":"enum SkillWager.Result","name":"_result","type":"uint8"}],"name":"submitResult","outputs":[],"stateMutability":"nonpayable","type":"function"},{"inputs":[{"internalType":"address","name":"newOwner","type":"address"}],"name":"transferOwnership","outputs":[],"stateMutability":"nonpayable","type":"function"},{"inputs":[{"internalType":"uint256","name":"_matchId","type":"uint256"}],"name":"voteToCancel","outputs":[],"stateMutability":"nonpayable","type":"function"},{"inputs":[{"internalType":"uint256","name":"_matchId","type":"uint256"}],"name":"withdrawPreMatch","outputs":[],"stateMutability":"nonpayable","type":"function"}],"evm":{"bytecode":{"linkReferences":{},"object":"6080806040523461007f57600160005533156100695760018054336001600160a01b03198216811790925560405191906001600160a01b03167f8be0079c531659141344cd1fd0a4f28419497f9722a3daafe3b4186f6b6457e0600080a361152490816100858239f35b631e4fbdf760e01b815260006004820152602490fd5b600080fdfe60406080815260048036101561001457600080fd5b600091823560e01c80631318e27b14610d305780631e01fc2f14610b435780631f7e507e146108cd5780634768d4ef146107d55780634fdc2fb4146107b65780635a8fe26f14610741578063715018a6146106e45780637ca23b94146106c75780638da5cb5b1461069e5780638e9836b6146105915780638f52d9d41461054e578063afaec5271461052e578063eff53a6914610332578063f2fde38b146102a1578063f5a0ea6c146101f35763feb8c438146100d057600080fd5b60203660031901126101ef578135916100e761120f565b828452600360205260ff600583862001541660068110156101dc5761010c9015611232565b82845260036020528184209160018060a01b0360018401541633146101a15750610142610149916003840154908401549061119a565b34146111bd565b60028101336001600160601b0360a01b82541617905560058101600160ff1982541617905560064291015533907f50d6e5d288766a7340b6110b6738cac822c48c128a47399df2fad303041f8d508380a36001815580f35b906020606492519162461bcd60e51b83528201526015602482015274086c2dcdcdee840d4ded2dc40deeedc40dac2e8c6d605b1b6044820152fd5b634e487b7160e01b855260218252602485fd5b8280fd5b5090816003193601126101ef577fab8c9f12c79b09660cc1e067055451fdf910f3c9bf0349316c5bd5dd14619acc81359260243561022f61120f565b61023c610142828761119a565b6002549361024985611200565b6002558487526003602052818388209186835560018301336001600160601b0360a01b8254161790558760038401558201556005810160ff198154169055600642910155815194855260208501523393a36001815580f35b50346101ef5760203660031901126101ef576001600160a01b0382358181169391929084900361032e576102d361116e565b8315610318575050600154826001600160601b0360a01b821617600155167f8be0079c531659141344cd1fd0a4f28419497f9722a3daafe3b4186f6b6457e08380a380f35b51631e4fbdf760e01b8152908101849052602490fd5b8480fd5b5090346101ef5760208060031936011261052a578135928385526003825280852061037760018060a01b039182806001830154163314918215610519575b505061126e565b8486526003835260ff6005838820015416600681101561049f57600161039d9114611232565b8486526003835281862090600682015461012c8101809111610506574211156104cd57600560ff91600184015416331492836000146104be57828282015460081c16935b156104b257015460101c16905b600381101561049f5760010361046657600381101561045357610419578461041633866112a9565b80f35b5162461bcd60e51b815291820152601660248201527513dc1c1bdb995b9d08185b1c9958591e481858dd195960521b604482015260649150fd5b634e487b7160e01b865260218452602486fd5b505162461bcd60e51b8152918201526014602482015273135d5cdd0818db185a5b481dda5b88199a5c9cdd60621b604482015260649150fd5b634e487b7160e01b875260218552602487fd5b015460081c16906103ee565b828282015460101c16936103e1565b50505162461bcd60e51b8152918201526013602482015272151a5b595bdd5d081b9bdd081c995858da1959606a1b604482015260649150fd5b634e487b7160e01b885260118652602488fd5b600291925001541633148238610370565b8380fd5b83823461054a578160031936011261054a576020905160038152f35b5080fd5b50823461058e57602036600319011261058e578235925483101561058e5750610578602092611109565b905491519160018060a01b039160031b1c168152f35b80fd5b50346101ef5760203660031901126101ef578135916105ae61120f565b828452600360205260ff600583862001541660068110156101dc576105d39015611232565b828452600360205281842060018101546001600160a01b0316913383900361066c5785809361061d848395946005859601600560ff1982541617905560038201549101549061119a565b90828215610663575bf11561065857507f700135b4fe8746e2d2c85a9baa43c62887740aebfeb3a439f71a083fe5d567598280a26001815580f35b51913d9150823e3d90fd5b506108fc610626565b606490602085519162461bcd60e51b8352820152600c60248201526b27b7363c9031b932b0ba37b960a11b6044820152fd5b83823461054a578160031936011261054a5760015490516001600160a01b039091168152602090f35b83823461054a578160031936011261054a576020905161012c8152f35b833461058e578060031936011261058e576106fd61116e565b600180546001600160a01b0319811690915581906001600160a01b03167f8be0079c531659141344cd1fd0a4f28419497f9722a3daafe3b4186f6b6457e08280a380f35b82843461058e57602036600319011261058e576001600160a01b038235818116908190036101ef5761077161116e565b8354600160401b8110156107a35760018101855561078e90611109565b909283549160031b92831b921b191617905580f35b634e487b7160e01b845260418552602484fd5b83823461054a578160031936011261054a576020906002549051908152f35b50823461058e57602036600319011261058e5782358152600360205281812080549260018060a01b03928360018401541693600284015416906003840154878501549160058601549260ff841692600688015495600989015497600b600a8b01549a01549a81519c8d5260208d01528b015260608a0152608089015260068210156108ba576101a08860ff8989898961088f8a8a60a089015261088060c08901888360081c166110e6565b8660e089019160101c166110e6565b610100860152610120850152610140840152818116151561016084015260081c161515610180820152f35b634e487b7160e01b815260218952602490fd5b5090346101ef576108dd366110c2565b81859392935260206003815260ff60058688200154166006811015610b305760026109089114611232565b838652600381528486209461091d33866113e2565b15610b01576008860133885280835260ff82892054166003811015610abb57610ace5760038410159081610abb5760018514808015610aae575b15610a7c5782610a695715610a4857600988016109748154611200565b90555b338952835281882090610a3557916109c17f8ed593b386877faf4c9856297fea257c8cee329002d75c2fea35240030c9c54992879460ff1981541660ff88161790555180956110e6565b3393a3600783015460011c9060018201809211610a225750600983015481116109fb5750610416916001808060a01b039101541690611448565b600a8301541015610a0b57505080f35b61041691600260018060a01b039101541690611448565b634e487b7160e01b855260119052602484fd5b634e487b7160e01b885260218552602488fd5b889150600119850161097757600a8801610a628154611200565b9055610977565b634e487b7160e01b8a526021875260248afd5b835162461bcd60e51b8152808801869052600c60248201526b496e76616c696420766f746560a01b6044820152606490fd5b5089925060028614610957565b634e487b7160e01b895260218652602489fd5b815162461bcd60e51b8152808601849052600d60248201526c105b1c9958591e481d9bdd1959609a1b6044820152606490fd5b5162461bcd60e51b81529283015250600b60248201526a2737ba103090353ab937b960a91b6044820152606490fd5b634e487b7160e01b875260218452602487fd5b50346101ef5760203660031901126101ef57813591828452600360205281842090610b8760018060a01b039283806001830154163314918215610d1f57505061126e565b8385526003602052828520916005830160ff8154166006811015610d0c5760018114908115610d01575b5015610cca57908392916001889501828154163314600014610cb457600b8501805460ff191660011790555b600b85015460ff81169081610ca6575b50610bf6578580f35b8291600560ff19825416179055541692848080806003850197610c2089549887019889549061119a565b90828215610c9d575bf115610c935792610c4a85949385949360028695015416925490549061119a565b90828215610c8a575bf11561065857507f700135b4fe8746e2d2c85a9baa43c62887740aebfeb3a439f71a083fe5d567598280a238808281808080808580f35b506108fc610c53565b85513d86823e3d90fd5b506108fc610c29565b60ff915060081c1638610bed565b600b8501805461ff001916610100179055610bdd565b845162461bcd60e51b8152602081850152601160248201527043616e6e6f742063616e63656c206e6f7760781b6044820152606490fd5b600291501438610bb1565b634e487b7160e01b885260218452602488fd5b600291925001541633148338610370565b50346101ef57610d3f366110c2565b9290918285526003916020928084528287209260018060a01b0394610d776001958780888301541633149182156110b157505061126e565b86895282815260ff97886005848c2001541660068110156110245786610d9d9114611232565b878a52838252828a209084811015806110375787821480156110a5575b1561107157888884015416331460001461104a57600583019061103757805461ff001916600883901b61ff0016179055600591905b610dfb855180926110e6565b897f099c976edcaeebeac7aa3492983b6a1e1e59890b5b38376529ba0e35427fdc1e853393a34260068201550154888160081c168481101561102457899015159182610ffa575b5050610e4c578880f35b868952828152818920976005890190815490808260081c1686811015610fe75788811480610fbd575b15610e9b575050505050505050610e8f93015416906112a9565b38808080808080808880f35b969795966002149081610f93575b5015610eca57505050505050506002610ec593015416906112a9565b610e8f565b60ff191660021790558689528390528720949550919391929160070186845b610f1d575b5050505050507f0715daac82f9b9aa17ddece2f059d6667b3fe54f36bcc4571221f96a00a5b5aa8280a2610e8f565b8554811015610f8e5783610f3082611109565b905490851b1c168254600160401b811015610f7b5791610f7391610f5c84898098979601865585611156565b888293925491881b92831b921b1916179055611200565b909192610ee9565b634e487b7160e01b8a526041885260248afd5b610eee565b90508160101c1686811015610faa57851438610ea9565b634e487b7160e01b8c526021885260248cfd5b50818360101c1687811015610fd457600214610e75565b634e487b7160e01b8e526021895260248efd5b634e487b7160e01b8d526021885260248dfd5b60101c169050838110156110115715158838610e42565b634e487b7160e01b8a526021855260248afd5b634e487b7160e01b8b526021865260248bfd5b634e487b7160e01b8c526021875260248cfd5b600583019061103757805462ff00001916601083901b62ff00001617905560059190610def565b845162461bcd60e51b8152808801859052600e60248201526d125b9d985b1a59081c995cdd5b1d60921b6044820152606490fd5b50508a60028214610dba565b600291925001541633148738610370565b60409060031901126110e1576004359060243560038110156110e15790565b600080fd5b9060038210156110f35752565b634e487b7160e01b600052602160045260246000fd5b6004548110156111405760046000527f8a35acfbc15ff81a39ae7d344fd709f28e8600b4aa8c65c6b64bfe7fe36bd19b0190600090565b634e487b7160e01b600052603260045260246000fd5b80548210156111405760005260206000200190600090565b6001546001600160a01b0316330361118257565b60405163118cdaa760e01b8152336004820152602490fd5b919082018092116111a757565b634e487b7160e01b600052601160045260246000fd5b156111c457565b60405162461bcd60e51b8152602060048201526014602482015273125b98dbdc9c9958dd081d985b1d59481cd95b9d60621b6044820152606490fd5b60001981146111a75760010190565b600260005414611220576002600055565b604051633ee5aeb560e01b8152600490fd5b1561123957565b60405162461bcd60e51b815260206004820152600d60248201526c496e76616c696420737461746560981b6044820152606490fd5b1561127557565b60405162461bcd60e51b815260206004820152600c60248201526b2737ba103090383630bcb2b960a11b6044820152606490fd5b60008181526003602052604081209260058401600460ff1982541617905560038401548060011b90808204600214901517156113ce576004850154918260011b918315928481046002148417156113ba5781611309869261130f9461119a565b5061119a565b60018701546001600160a01b03928316978691829182918291879182168d81036113b157506002015416945b8b8282156113a8575bf11561139d5784938493849384938492611393575b1690f11561138757807f1c560e9f349cd346794f9d534fb852628d58cc7a726d0adb57820fae0a50cd4791a3565b604051903d90823e3d90fd5b6108fc9250611359565b6040513d86823e3d90fd5b506108fc611344565b9150509461133b565b634e487b7160e01b86526011600452602486fd5b634e487b7160e01b83526011600452602483fd5b600052600390816020526040600020916007600093018054935b84811061140d575050505050600090565b6114178183611156565b905490841b1c6001600160a01b039081169085161461143e5761143990611200565b6113fc565b5050505050600190565b600081815260036020526040812060058101600460ff198254161790556003810154908160011b91808304600214901517156113ce5760040154908160011b91808304600214901517156113ce5782806114a48194829461119a565b6001600160a01b0390971696878282156114e5575bf11561138757807f1c560e9f349cd346794f9d534fb852628d58cc7a726d0adb57820fae0a50cd4791a3565b506108fc6114b956fea264697066735822122005ffcf26a7fbf43661e1f7aedf4ccc9163c5ae0752c8b071bbd7b185b218bf4164736f6c63430008140033","opcodes":"PUSH1 0x80 DUP1 PUSH1 0x40 MSTORE CALLVALUE PUSH2 0x7F JUMPI PUSH1 0x1 PUSH1 0x0 SSTORE CALLER ISZERO PUSH2 0x69 JUMPI PUSH1 0x1 DUP1 SLOAD CALLER PUSH1 0x1 PUSH1 0x1 PUSH1 0xA0 SHL SUB NOT DUP3 AND DUP2 OR SWAP1 SWAP3 SSTORE PUSH1 0x40 MLOAD SWAP2 SWAP1 PUSH1 0x1 PUSH1 0x1 PUSH1 0xA0 SHL SUB AND PUSH32 0x8BE0079C531659141344CD1FD0A4F28419497F9722A3DAAFE3B4186F6B6457E0 PUSH1 0x0 DUP1 LOG3 PUSH2 0x1524 SWAP1 DUP2 PUSH2 0x85 DUP3 CODECOPY RETURN JUMPDEST PUSH4 0x1E4FBDF7 PUSH1 0xE0 SHL DUP2 MSTORE PUSH1 0x0 PUSH1 0x4 DUP3 ADD MSTORE PUSH1 0x24 SWAP1 REVERT JUMPDEST PUSH1 0x0 DUP1 REVERT INVALID PUSH1 0x40 PUSH1 0x80 DUP2 MSTORE PUSH1 0x4 DUP1 CALLDATASIZE LT ISZERO PUSH2 0x14 JUMPI PUSH1 0x0 DUP1 REVERT JUMPDEST PUSH1 0x0 SWAP2 DUP3 CALLDATALOAD PUSH1 0xE0 SHR DUP1 PUSH4 0x1318E27B EQ PUSH2 0xD30 JUMPI DUP1 PUSH4 0x1E01FC2F EQ PUSH2 0xB43 JUMPI DUP1 PUSH4 0x1F7E507E EQ PUSH2 0x8CD JUMPI DUP1 PUSH4 0x4768D4EF EQ PUSH2 0x7D5 JUMPI DUP1 PUSH4 0x4FDC2FB4 EQ PUSH2 0x7B6 JUMPI DUP1 PUSH4 0x5A8FE26F EQ PUSH2 0x741 JUMPI DUP1 PUSH4 0x715018A6 EQ PUSH2 0x6E4 JUMPI DUP1 PUSH4 0x7CA23B94 EQ PUSH2 0x6C7 JUMPI DUP1 PUSH4 0x8DA5CB5B EQ PUSH2 0x69E JUMPI DUP1 PUSH4 0x8E9836B6 EQ PUSH2 0x591 JUMPI DUP1 PUSH4 0x8F52D9D4 EQ PUSH2 0x54E JUMPI DUP1 PUSH4 0xAFAEC527 EQ PUSH2 0x52E JUMPI DUP1 PUSH4 0xEFF53A69 EQ PUSH2 0x332 JUMPI DUP1 PUSH4 0xF2FDE38B EQ PUSH2 0x2A1 JUMPI DUP1 PUSH4 0xF5A0EA6C EQ PUSH2 0x1F3 JUMPI PUSH4 0xFEB8C438 EQ PUSH2 0xD0 JUMPI PUSH1 0x0 DUP1 REVERT JUMPDEST PUSH1 0x20 CALLDATASIZE PUSH1 0x3 NOT ADD SLT PUSH2 0x1EF JUMPI DUP2 CALLDATALOAD SWAP2 PUSH2 0xE7 PUSH2 0x120F JUMP JUMPDEST DUP3 DUP5 MSTORE PUSH1 0x3 PUSH1 0x20 MSTORE PUSH1 0xFF PUSH1 0x5 DUP4 DUP7 KECCAK256 ADD SLOAD AND PUSH1 0x6 DUP2 LT ISZERO PUSH2 0x1DC JUMPI PUSH2 0x10C SWAP1 ISZERO PUSH2 0x1232 JUMP JUMPDEST DUP3 DUP5 MSTORE PUSH1 0x3 PUSH1 0x20 MSTORE DUP2 DUP5 KECCAK256 SWAP2 PUSH1 0x1 DUP1 PUSH1 0xA0 SHL SUB PUSH1 0x1 DUP5 ADD SLOAD AND CALLER EQ PUSH2 0x1A1 JUMPI POP PUSH2 0x142 PUSH2 0x149 SWAP2 PUSH1 0x3 DUP5 ADD SLOAD SWAP1 DUP5 ADD SLOAD SWAP1 PUSH2 0x119A JUMP JUMPDEST CALLVALUE EQ PUSH2 0x11BD JUMP JUMPDEST PUSH1 0x2 DUP2 ADD CALLER PUSH1 0x1 PUSH1 0x1 PUSH1 0x60 SHL SUB PUSH1 0xA0 SHL DUP3 SLOAD AND OR SWAP1 SSTORE PUSH1 0x5 DUP2 ADD PUSH1 0x1 PUSH1 0xFF NOT DUP3 SLOAD AND OR SWAP1 SSTORE PUSH1 0x6 TIMESTAMP SWAP2 ADD SSTORE CALLER SWAP1 PUSH32 0x50D6E5D288766A7340B6110B6738CAC822C48C128A47399DF2FAD303041F8D50 DUP4 DUP1 LOG3 PUSH1 0x1 DUP2 SSTORE DUP1 RETURN JUMPDEST SWAP1 PUSH1 0x20 PUSH1 0x64 SWAP3 MLOAD SWAP2 PUSH3 0x461BCD PUSH1 0xE5 SHL DUP4 MSTORE DUP3 ADD MSTORE PUSH1 0x15 PUSH1 0x24 DUP3 ADD MSTORE PUSH21 0x86C2DCDCDEE840D4DED2DC40DEEEDC40DAC2E8C6D PUSH1 0x5B SHL PUSH1 0x44 DUP3 ADD MSTORE REVERT JUMPDEST PUSH4 0x4E487B71 PUSH1 0xE0 SHL DUP6 MSTORE PUSH1 0x21 DUP3 MSTORE PUSH1 0x24 DUP6 REVERT JUMPDEST DUP3 DUP1 REVERT JUMPDEST POP SWAP1 DUP2 PUSH1 0x3 NOT CALLDATASIZE ADD SLT PUSH2 0x1EF JUMPI PUSH32 0xAB8C9F12C79B09660CC1E067055451FDF910F3C9BF0349316C5BD5DD14619ACC DUP2 CALLDATALOAD SWAP3 PUSH1 0x24 CALLDATALOAD PUSH2 0x22F PUSH2 0x120F JUMP JUMPDEST PUSH2 0x23C PUSH2 0x142 DUP3 DUP8 PUSH2 0x119A JUMP JUMPDEST PUSH1 0x2 SLOAD SWAP4 PUSH2 0x249 DUP6 PUSH2 0x1200 JUMP JUMPDEST PUSH1 0x2 SSTORE DUP5 DUP8 MSTORE PUSH1 0x3 PUSH1 0x20 MSTORE DUP2 DUP4 DUP9 KECCAK256 SWAP2 DUP7 DUP4 SSTORE PUSH1 0x1 DUP4 ADD CALLER PUSH1 0x1 PUSH1 0x1 PUSH1 0x60 SHL SUB PUSH1 0xA0 SHL DUP3 SLOAD AND OR SWAP1 SSTORE DUP8 PUSH1 0x3 DUP5 ADD SSTORE DUP3 ADD SSTORE PUSH1 0x5 DUP2 ADD PUSH1 0xFF NOT DUP2 SLOAD AND SWAP1 SSTORE PUSH1 0x6 TIMESTAMP SWAP2 ADD SSTORE DUP2 MLOAD SWAP5 DUP6 MSTORE PUSH1 0x20 DUP6 ADD MSTORE CALLER SWAP4 LOG3 PUSH1 0x1 DUP2 SSTORE DUP1 RETURN JUMPDEST POP CALLVALUE PUSH2 0x1EF JUMPI PUSH1 0x20 CALLDATASIZE PUSH1 0x3 NOT ADD SLT PUSH2 0x1EF JUMPI PUSH1 0x1 PUSH1 0x1 PUSH1 0xA0 SHL SUB DUP3 CALLDATALOAD DUP2 DUP2 AND SWAP4 SWAP2 SWAP3 SWAP1 DUP5 SWAP1 SUB PUSH2 0x32E JUMPI PUSH2 0x2D3 PUSH2 0x116E JUMP JUMPDEST DUP4 ISZERO PUSH2 0x318 JUMPI POP POP PUSH1 0x1 SLOAD DUP3 PUSH1 0x1 PUSH1 0x1 PUSH1 0x60 SHL SUB PUSH1 0xA0 SHL DUP3 AND OR PUSH1 0x1 SSTORE AND PUSH32 0x8BE0079C531659141344CD1FD0A4F28419497F9722A3DAAFE3B4186F6B6457E0 DUP4 DUP1 LOG3 DUP1 RETURN JUMPDEST MLOAD PUSH4 0x1E4FBDF7 PUSH1 0xE0 SHL DUP2 MSTORE SWAP1 DUP2 ADD DUP5 SWAP1 MSTORE PUSH1 0x24 SWAP1 REVERT JUMPDEST DUP5 DUP1 REVERT JUMPDEST POP SWAP1 CALLVALUE PUSH2 0x1EF JUMPI PUSH1 0x20 DUP1 PUSH1 0x3 NOT CALLDATASIZE ADD SLT PUSH2 0x52A JUMPI DUP2 CALLDATALOAD SWAP3 DUP4 DUP6 MSTORE PUSH1 0x3 DUP3 MSTORE DUP1 DUP6 KECCAK256 PUSH2 0x377 PUSH1 0x1 DUP1 PUSH1 0xA0 SHL SUB SWAP2 DUP3 DUP1 PUSH1 0x1 DUP4 ADD SLOAD AND CALLER EQ SWAP2 DUP3 ISZERO PUSH2 0x519 JUMPI JUMPDEST POP POP PUSH2 0x126E JUMP JUMPDEST DUP5 DUP7 MSTORE PUSH1 0x3 DUP4 MSTORE PUSH1 0xFF PUSH1 0x5 DUP4 DUP9 KECCAK256 ADD SLOAD AND PUSH1 0x6 DUP2 LT ISZERO PUSH2 0x49F JUMPI PUSH1 0x1 PUSH2 0x39D SWAP2 EQ PUSH2 0x1232 JUMP JUMPDEST DUP5 DUP7 MSTORE PUSH1 0x3 DUP4 MSTORE DUP2 DUP7 KECCAK256 SWAP1 PUSH1 0x6 DUP3 ADD SLOAD PUSH2 0x12C DUP2 ADD DUP1 SWAP2 GT PUSH2 0x506 JUMPI TIMESTAMP GT ISZERO PUSH2 0x4CD JUMPI PUSH1 0x5 PUSH1 0xFF SWAP2 PUSH1 0x1 DUP5 ADD SLOAD AND CALLER EQ SWAP3 DUP4 PUSH1 0x0 EQ PUSH2 0x4BE JUMPI DUP3 DUP3 DUP3 ADD SLOAD PUSH1 0x8 SHR AND SWAP4 JUMPDEST ISZERO PUSH2 0x4B2 JUMPI ADD SLOAD PUSH1 0x10 SHR AND SWAP1 JUMPDEST PUSH1 0x3 DUP2 LT ISZERO PUSH2 0x49F JUMPI PUSH1 0x1 SUB PUSH2 0x466 JUMPI PUSH1 0x3 DUP2 LT ISZERO PUSH2 0x453 JUMPI PUSH2 0x419 JUMPI DUP5 PUSH2 0x416 CALLER DUP7 PUSH2 0x12A9 JUMP JUMPDEST DUP1 RETURN JUMPDEST MLOAD PUSH3 0x461BCD PUSH1 0xE5 SHL DUP2 MSTORE SWAP2 DUP3 ADD MSTORE PUSH1 0x16 PUSH1 0x24 DUP3 ADD MSTORE PUSH22 0x13DC1C1BDB995B9D08185B1C9958591E481858DD1959 PUSH1 0x52 SHL PUSH1 0x44 DUP3 ADD MSTORE PUSH1 0x64 SWAP2 POP REVERT JUMPDEST PUSH4 0x4E487B71 PUSH1 0xE0 SHL DUP7 MSTORE PUSH1 0x21 DUP5 MSTORE PUSH1 0x24 DUP7 REVERT JUMPDEST POP MLOAD PUSH3 0x461BCD PUSH1 0xE5 SHL DUP2 MSTORE SWAP2 DUP3 ADD MSTORE PUSH1 0x14 PUSH1 0x24 DUP3 ADD MSTORE PUSH20 0x135D5CDD0818DB185A5B481DDA5B88199A5C9CDD PUSH1 0x62 SHL PUSH1 0x44 DUP3 ADD MSTORE PUSH1 0x64 SWAP2 POP REVERT JUMPDEST PUSH4 0x4E487B71 PUSH1 0xE0 SHL DUP8 MSTORE PUSH1 0x21 DUP6 MSTORE PUSH1 0x24 DUP8 REVERT JUMPDEST ADD SLOAD PUSH1 0x8 SHR AND SWAP1 PUSH2 0x3EE JUMP JUMPDEST DUP3 DUP3 DUP3 ADD SLOAD PUSH1 0x10 SHR AND SWAP4 PUSH2 0x3E1 JUMP JUMPDEST POP POP MLOAD PUSH3 0x461BCD PUSH1 0xE5 SHL DUP2 MSTORE SWAP2 DUP3 ADD MSTORE PUSH1 0x13 PUSH1 0x24 DUP3 ADD MSTORE PUSH19 0x151A5B595BDD5D081B9BDD081C995858DA1959 PUSH1 0x6A SHL PUSH1 0x44 DUP3 ADD MSTORE PUSH1 0x64 SWAP2 POP REVERT JUMPDEST PUSH4 0x4E487B71 PUSH1 0xE0 SHL DUP9 MSTORE PUSH1 0x11 DUP7 MSTORE PUSH1 0x24 DUP9 REVERT JUMPDEST PUSH1 0x2 SWAP2 SWAP3 POP ADD SLOAD AND CALLER EQ DUP3 CODESIZE PUSH2 0x370 JUMP JUMPDEST DUP4 DUP1 REVERT JUMPDEST DUP4 DUP3 CALLVALUE PUSH2 0x54A JUMPI DUP2 PUSH1 0x3 NOT CALLDATASIZE ADD SLT PUSH2 0x54A JUMPI PUSH1 0x20 SWAP1 MLOAD PUSH1 0x3 DUP2 MSTORE RETURN JUMPDEST POP DUP1 REVERT JUMPDEST POP DUP3 CALLVALUE PUSH2 0x58E JUMPI PUSH1 0x20 CALLDATASIZE PUSH1 0x3 NOT ADD SLT PUSH2 0x58E JUMPI DUP3 CALLDATALOAD SWAP3 SLOAD DUP4 LT ISZERO PUSH2 0x58E JUMPI POP PUSH2 0x578 PUSH1 0x20 SWAP3 PUSH2 0x1109 JUMP JUMPDEST SWAP1 SLOAD SWAP2 MLOAD SWAP2 PUSH1 0x1 DUP1 PUSH1 0xA0 SHL SUB SWAP2 PUSH1 0x3 SHL SHR AND DUP2 MSTORE RETURN JUMPDEST DUP1 REVERT JUMPDEST POP CALLVALUE PUSH2 0x1EF JUMPI PUSH1 0x20 CALLDATASIZE PUSH1 0x3 NOT ADD SLT PUSH2 0x1EF JUMPI DUP2 CALLDATALOAD SWAP2 PUSH2 0x5AE PUSH2 0x120F JUMP JUMPDEST DUP3 DUP5 MSTORE PUSH1 0x3 PUSH1 0x20 MSTORE PUSH1 0xFF PUSH1 0x5 DUP4 DUP7 KECCAK256 ADD SLOAD AND PUSH1 0x6 DUP2 LT ISZERO PUSH2 0x1DC JUMPI PUSH2 0x5D3 SWAP1 ISZERO PUSH2 0x1232 JUMP JUMPDEST DUP3 DUP5 MSTORE PUSH1 0x3 PUSH1 0x20 MSTORE DUP2 DUP5 KECCAK256 PUSH1 0x1 DUP2 ADD SLOAD PUSH1 0x1 PUSH1 0x1 PUSH1 0xA0 SHL SUB AND SWAP2 CALLER DUP4 SWAP1 SUB PUSH2 0x66C JUMPI DUP6 DUP1 SWAP4 PUSH2 0x61D DUP5 DUP4 SWAP6 SWAP5 PUSH1 0x5 DUP6 SWAP7 ADD PUSH1 0x5 PUSH1 0xFF NOT DUP3 SLOAD AND OR SWAP1 SSTORE PUSH1 0x3 DUP3 ADD SLOAD SWAP2 ADD SLOAD SWAP1 PUSH2 0x119A JUMP JUMPDEST SWAP1 DUP3 DUP3 ISZERO PUSH2 0x663 JUMPI JUMPDEST CALL ISZERO PUSH2 0x658 JUMPI POP PUSH32 0x700135B4FE8746E2D2C85A9BAA43C62887740AEBFEB3A439F71A083FE5D56759 DUP3 DUP1 LOG2 PUSH1 0x1 DUP2 SSTORE DUP1 RETURN JUMPDEST MLOAD SWAP2 RETURNDATASIZE SWAP2 POP DUP3 RETURNDATACOPY RETURNDATASIZE SWAP1 REVERT JUMPDEST POP PUSH2 0x8FC PUSH2 0x626 JUMP JUMPDEST PUSH1 0x64 SWAP1 PUSH1 0x20 DUP6 MLOAD SWAP2 PUSH3 0x461BCD PUSH1 0xE5 SHL DUP4 MSTORE DUP3 ADD MSTORE PUSH1 0xC PUSH1 0x24 DUP3 ADD MSTORE PUSH12 0x27B7363C9031B932B0BA37B9 PUSH1 0xA1 SHL PUSH1 0x44 DUP3 ADD MSTORE REVERT JUMPDEST DUP4 DUP3 CALLVALUE PUSH2 0x54A JUMPI DUP2 PUSH1 0x3 NOT CALLDATASIZE ADD SLT PUSH2 0x54A JUMPI PUSH1 0x1 SLOAD SWAP1 MLOAD PUSH1 0x1 PUSH1 0x1 PUSH1 0xA0 SHL SUB SWAP1 SWAP2 AND DUP2 MSTORE PUSH1 0x20 SWAP1 RETURN JUMPDEST DUP4 DUP3 CALLVALUE PUSH2 0x54A JUMPI DUP2 PUSH1 0x3 NOT CALLDATASIZE ADD SLT PUSH2 0x54A JUMPI PUSH1 0x20 SWAP1 MLOAD PUSH2 0x12C DUP2 MSTORE RETURN JUMPDEST DUP4 CALLVALUE PUSH2 0x58E JUMPI DUP1 PUSH1 0x3 NOT CALLDATASIZE ADD SLT PUSH2 0x58E JUMPI PUSH2 0x6FD PUSH2 0x116E JUMP JUMPDEST PUSH1 0x1 DUP1 SLOAD PUSH1 0x1 PUSH1 0x1 PUSH1 0xA0 SHL SUB NOT DUP2 AND SWAP1 SWAP2 SSTORE DUP2 SWAP1 PUSH1 0x1 PUSH1 0x1 PUSH1 0xA0 SHL SUB AND PUSH32 0x8BE0079C531659141344CD1FD0A4F28419497F9722A3DAAFE3B4186F6B6457E0 DUP3 DUP1 LOG3 DUP1 RETURN JUMPDEST DUP3 DUP5 CALLVALUE PUSH2 0x58E JUMPI PUSH1 0x20 CALLDATASIZE PUSH1 0x3 NOT ADD SLT PUSH2 0x58E JUMPI PUSH1 0x1 PUSH1 0x1 PUSH1 0xA0 SHL SUB DUP3 CALLDATALOAD DUP2 DUP2 AND SWAP1 DUP2 SWAP1 SUB PUSH2 0x1EF JUMPI PUSH2 0x771 PUSH2 0x116E JUMP JUMPDEST DUP4 SLOAD PUSH1 0x1 PUSH1 0x40 SHL DUP2 LT ISZERO PUSH2 0x7A3 JUMPI PUSH1 0x1 DUP2 ADD DUP6 SSTORE PUSH2 0x78E SWAP1 PUSH2 0x1109 JUMP JUMPDEST SWAP1 SWAP3 DUP4 SLOAD SWAP2 PUSH1 0x3 SHL SWAP3 DUP4 SHL SWAP3 SHL NOT AND OR SWAP1 SSTORE DUP1 RETURN JUMPDEST PUSH4 0x4E487B71 PUSH1 0xE0 SHL DUP5 MSTORE PUSH1 0x41 DUP6 MSTORE PUSH1 0x24 DUP5 REVERT JUMPDEST DUP4 DUP3 CALLVALUE PUSH2 0x54A JUMPI DUP2 PUSH1 0x3 NOT CALLDATASIZE ADD SLT PUSH2 0x54A JUMPI PUSH1 0x20 SWAP1 PUSH1 0x2 SLOAD SWAP1 MLOAD SWAP1 DUP2 MSTORE RETURN JUMPDEST POP DUP3 CALLVALUE PUSH2 0x58E JUMPI PUSH1 0x20 CALLDATASIZE PUSH1 0x3 NOT ADD SLT PUSH2 0x58E JUMPI DUP3 CALLDATALOAD DUP2 MSTORE PUSH1 0x3 PUSH1 0x20 MSTORE DUP2 DUP2 KECCAK256 DUP1 SLOAD SWAP3 PUSH1 0x1 DUP1 PUSH1 0xA0 SHL SUB SWAP3 DUP4 PUSH1 0x1 DUP5 ADD SLOAD AND SWAP4 PUSH1 0x2 DUP5 ADD SLOAD AND SWAP1 PUSH1 0x3 DUP5 ADD SLOAD DUP8 DUP6 ADD SLOAD SWAP2 PUSH1 0x5 DUP7 ADD SLOAD SWAP3 PUSH1 0xFF DUP5 AND SWAP3 PUSH1 0x6 DUP9 ADD SLOAD SWAP6 PUSH1 0x9 DUP10 ADD SLOAD SWAP8 PUSH1 0xB PUSH1 0xA DUP12 ADD SLOAD SWAP11 ADD SLOAD SWAP11 DUP2 MLOAD SWAP13 DUP14 MSTORE PUSH1 0x20 DUP14 ADD MSTORE DUP12 ADD MSTORE PUSH1 0x60 DUP11 ADD MSTORE PUSH1 0x80 DUP10 ADD MSTORE PUSH1 0x6 DUP3 LT ISZERO PUSH2 0x8BA JUMPI PUSH2 0x1A0 DUP9 PUSH1 0xFF DUP10 DUP10 DUP10 DUP10 PUSH2 0x88F DUP11 DUP11 PUSH1 0xA0 DUP10 ADD MSTORE PUSH2 0x880 PUSH1 0xC0 DUP10 ADD DUP9 DUP4 PUSH1 0x8 SHR AND PUSH2 0x10E6 JUMP JUMPDEST DUP7 PUSH1 0xE0 DUP10 ADD SWAP2 PUSH1 0x10 SHR AND PUSH2 0x10E6 JUMP JUMPDEST PUSH2 0x100 DUP7 ADD MSTORE PUSH2 0x120 DUP6 ADD MSTORE PUSH2 0x140 DUP5 ADD MSTORE DUP2 DUP2 AND ISZERO ISZERO PUSH2 0x160 DUP5 ADD MSTORE PUSH1 0x8 SHR AND ISZERO ISZERO PUSH2 0x180 DUP3 ADD MSTORE RETURN JUMPDEST PUSH4 0x4E487B71 PUSH1 0xE0 SHL DUP2 MSTORE PUSH1 0x21 DUP10 MSTORE PUSH1 0x24 SWAP1 REVERT JUMPDEST POP SWAP1 CALLVALUE PUSH2 0x1EF JUMPI PUSH2 0x8DD CALLDATASIZE PUSH2 0x10C2 JUMP JUMPDEST DUP2 DUP6 SWAP4 SWAP3 SWAP4 MSTORE PUSH1 0x20 PUSH1 0x3 DUP2 MSTORE PUSH1 0xFF PUSH1 0x5 DUP7 DUP9 KECCAK256 ADD SLOAD AND PUSH1 0x6 DUP2 LT ISZERO PUSH2 0xB30 JUMPI PUSH1 0x2 PUSH2 0x908 SWAP2 EQ PUSH2 0x1232 JUMP JUMPDEST DUP4 DUP7 MSTORE PUSH1 0x3 DUP2 MSTORE DUP5 DUP7 KECCAK256 SWAP5 PUSH2 0x91D CALLER DUP7 PUSH2 0x13E2 JUMP JUMPDEST ISZERO PUSH2 0xB01 JUMPI PUSH1 0x8 DUP7 ADD CALLER DUP9 MSTORE DUP1 DUP4 MSTORE PUSH1 0xFF DUP3 DUP10 KECCAK256 SLOAD AND PUSH1 0x3 DUP2 LT ISZERO PUSH2 0xABB JUMPI PUSH2 0xACE JUMPI PUSH1 0x3 DUP5 LT ISZERO SWAP1 DUP2 PUSH2 0xABB JUMPI PUSH1 0x1 DUP6 EQ DUP1 DUP1 ISZERO PUSH2 0xAAE JUMPI JUMPDEST ISZERO PUSH2 0xA7C JUMPI DUP3 PUSH2 0xA69 JUMPI ISZERO PUSH2 0xA48 JUMPI PUSH1 0x9 DUP9 ADD PUSH2 0x974 DUP2 SLOAD PUSH2 0x1200 JUMP JUMPDEST SWAP1 SSTORE JUMPDEST CALLER DUP10 MSTORE DUP4 MSTORE DUP2 DUP9 KECCAK256 SWAP1 PUSH2 0xA35 JUMPI SWAP2 PUSH2 0x9C1 PUSH32 0x8ED593B386877FAF4C9856297FEA257C8CEE329002D75C2FEA35240030C9C549 SWAP3 DUP8 SWAP5 PUSH1 0xFF NOT DUP2 SLOAD AND PUSH1 0xFF DUP9 AND OR SWAP1 SSTORE MLOAD DUP1 SWAP6 PUSH2 0x10E6 JUMP JUMPDEST CALLER SWAP4 LOG3 PUSH1 0x7 DUP4 ADD SLOAD PUSH1 0x1 SHR SWAP1 PUSH1 0x1 DUP3 ADD DUP1 SWAP3 GT PUSH2 0xA22 JUMPI POP PUSH1 0x9 DUP4 ADD SLOAD DUP2 GT PUSH2 0x9FB JUMPI POP PUSH2 0x416 SWAP2 PUSH1 0x1 DUP1 DUP1 PUSH1 0xA0 SHL SUB SWAP2 ADD SLOAD AND SWAP1 PUSH2 0x1448 JUMP JUMPDEST PUSH1 0xA DUP4 ADD SLOAD LT ISZERO PUSH2 0xA0B JUMPI POP POP DUP1 RETURN JUMPDEST PUSH2 0x416 SWAP2 PUSH1 0x2 PUSH1 0x1 DUP1 PUSH1 0xA0 SHL SUB SWAP2 ADD SLOAD AND SWAP1 PUSH2 0x1448 JUMP JUMPDEST PUSH4 0x4E487B71 PUSH1 0xE0 SHL DUP6 MSTORE PUSH1 0x11 SWAP1 MSTORE PUSH1 0x24 DUP5 REVERT JUMPDEST PUSH4 0x4E487B71 PUSH1 0xE0 SHL DUP9 MSTORE PUSH1 0x21 DUP6 MSTORE PUSH1 0x24 DUP9 REVERT JUMPDEST DUP9 SWAP2 POP PUSH1 0x1 NOT DUP6 ADD PUSH2 0x977 JUMPI PUSH1 0xA DUP9 ADD PUSH2 0xA62 DUP2 SLOAD PUSH2 0x1200 JUMP JUMPDEST SWAP1 SSTORE PUSH2 0x977 JUMP JUMPDEST PUSH4 0x4E487B71 PUSH1 0xE0 SHL DUP11 MSTORE PUSH1 0x21 DUP8 MSTORE PUSH1 0x24 DUP11 REVERT JUMPDEST DUP4 MLOAD PUSH3 0x461BCD PUSH1 0xE5 SHL DUP2 MSTORE DUP1 DUP9 ADD DUP7 SWAP1 MSTORE PUSH1 0xC PUSH1 0x24 DUP3 ADD MSTORE PUSH12 0x496E76616C696420766F7465 PUSH1 0xA0 SHL PUSH1 0x44 DUP3 ADD MSTORE PUSH1 0x64 SWAP1 REVERT JUMPDEST POP DUP10 SWAP3 POP PUSH1 0x2 DUP7 EQ PUSH2 0x957 JUMP JUMPDEST PUSH4 0x4E487B71 PUSH1 0xE0 SHL DUP10 MSTORE PUSH1 0x21 DUP7 MSTORE PUSH1 0x24 DUP10 REVERT JUMPDEST DUP2 MLOAD PUSH3 0x461BCD PUSH1 0xE5 SHL DUP2 MSTORE DUP1 DUP7 ADD DUP5 SWAP1 MSTORE PUSH1 0xD PUSH1 0x24 DUP3 ADD MSTORE PUSH13 0x105B1C9958591E481D9BDD1959 PUSH1 0x9A SHL PUSH1 0x44 DUP3 ADD MSTORE PUSH1 0x64 SWAP1 REVERT JUMPDEST MLOAD PUSH3 0x461BCD PUSH1 0xE5 SHL DUP2 MSTORE SWAP3 DUP4 ADD MSTORE POP PUSH1 0xB PUSH1 0x24 DUP3 ADD MSTORE PUSH11 0x2737BA103090353AB937B9 PUSH1 0xA9 SHL PUSH1 0x44 DUP3 ADD MSTORE PUSH1 0x64 SWAP1 REVERT JUMPDEST PUSH4 0x4E487B71 PUSH1 0xE0 SHL DUP8 MSTORE PUSH1 0x21 DUP5 MSTORE PUSH1 0x24 DUP8 REVERT JUMPDEST POP CALLVALUE PUSH2 0x1EF JUMPI PUSH1 0x20 CALLDATASIZE PUSH1 0x3 NOT ADD SLT PUSH2 0x1EF JUMPI DUP2 CALLDATALOAD SWAP2 DUP3 DUP5 MSTORE PUSH1 0x3 PUSH1 0x20 MSTORE DUP2 DUP5 KECCAK256 SWAP1 PUSH2 0xB87 PUSH1 0x1 DUP1 PUSH1 0xA0 SHL SUB SWAP3 DUP4 DUP1 PUSH1 0x1 DUP4 ADD SLOAD AND CALLER EQ SWAP2 DUP3 ISZERO PUSH2 0xD1F JUMPI POP POP PUSH2 0x126E JUMP JUMPDEST DUP4 DUP6 MSTORE PUSH1 0x3 PUSH1 0x20 MSTORE DUP3 DUP6 KECCAK256 SWAP2 PUSH1 0x5 DUP4 ADD PUSH1 0xFF DUP2 SLOAD AND PUSH1 0x6 DUP2 LT ISZERO PUSH2 0xD0C JUMPI PUSH1 0x1 DUP2 EQ SWAP1 DUP2 ISZERO PUSH2 0xD01 JUMPI JUMPDEST POP ISZERO PUSH2 0xCCA JUMPI SWAP1 DUP4 SWAP3 SWAP2 PUSH1 0x1 DUP9 SWAP6 ADD DUP3 DUP2 SLOAD AND CALLER EQ PUSH1 0x0 EQ PUSH2 0xCB4 JUMPI PUSH1 0xB DUP6 ADD DUP1 SLOAD PUSH1 0xFF NOT AND PUSH1 0x1 OR SWAP1 SSTORE JUMPDEST PUSH1 0xB DUP6 ADD SLOAD PUSH1 0xFF DUP2 AND SWAP1 DUP2 PUSH2 0xCA6 JUMPI JUMPDEST POP PUSH2 0xBF6 JUMPI DUP6 DUP1 RETURN JUMPDEST DUP3 SWAP2 PUSH1 0x5 PUSH1 0xFF NOT DUP3 SLOAD AND OR SWAP1 SSTORE SLOAD AND SWAP3 DUP5 DUP1 DUP1 DUP1 PUSH1 0x3 DUP6 ADD SWAP8 PUSH2 0xC20 DUP10 SLOAD SWAP9 DUP8 ADD SWAP9 DUP10 SLOAD SWAP1 PUSH2 0x119A JUMP JUMPDEST SWAP1 DUP3 DUP3 ISZERO PUSH2 0xC9D JUMPI JUMPDEST CALL ISZERO PUSH2 0xC93 JUMPI SWAP3 PUSH2 0xC4A DUP6 SWAP5 SWAP4 DUP6 SWAP5 SWAP4 PUSH1 0x2 DUP7 SWAP6 ADD SLOAD AND SWAP3 SLOAD SWAP1 SLOAD SWAP1 PUSH2 0x119A JUMP JUMPDEST SWAP1 DUP3 DUP3 ISZERO PUSH2 0xC8A JUMPI JUMPDEST CALL ISZERO PUSH2 0x658 JUMPI POP PUSH32 0x700135B4FE8746E2D2C85A9BAA43C62887740AEBFEB3A439F71A083FE5D56759 DUP3 DUP1 LOG2 CODESIZE DUP1 DUP3 DUP2 DUP1 DUP1 DUP1 DUP1 DUP6 DUP1 RETURN JUMPDEST POP PUSH2 0x8FC PUSH2 0xC53 JUMP JUMPDEST DUP6 MLOAD RETURNDATASIZE DUP7 DUP3 RETURNDATACOPY RETURNDATASIZE SWAP1 REVERT JUMPDEST POP PUSH2 0x8FC PUSH2 0xC29 JUMP JUMPDEST PUSH1 0xFF SWAP2 POP PUSH1 0x8 SHR AND CODESIZE PUSH2 0xBED JUMP JUMPDEST PUSH1 0xB DUP6 ADD DUP1 SLOAD PUSH2 0xFF00 NOT AND PUSH2 0x100 OR SWAP1 SSTORE PUSH2 0xBDD JUMP JUMPDEST DUP5 MLOAD PUSH3 0x461BCD PUSH1 0xE5 SHL DUP2 MSTORE PUSH1 0x20 DUP2 DUP6 ADD MSTORE PUSH1 0x11 PUSH1 0x24 DUP3 ADD MSTORE PUSH17 0x43616E6E6F742063616E63656C206E6F77 PUSH1 0x78 SHL PUSH1 0x44 DUP3 ADD MSTORE PUSH1 0x64 SWAP1 REVERT JUMPDEST PUSH1 0x2 SWAP2 POP EQ CODESIZE PUSH2 0xBB1 JUMP JUMPDEST PUSH4 0x4E487B71 PUSH1 0xE0 SHL DUP9 MSTORE PUSH1 0x21 DUP5 MSTORE PUSH1 0x24 DUP9 REVERT JUMPDEST PUSH1 0x2 SWAP2 SWAP3 POP ADD SLOAD AND CALLER EQ DUP4 CODESIZE PUSH2 0x370 JUMP JUMPDEST POP CALLVALUE PUSH2 0x1EF JUMPI PUSH2 0xD3F CALLDATASIZE PUSH2 0x10C2 JUMP JUMPDEST SWAP3 SWAP1 SWAP2 DUP3 DUP6 MSTORE PUSH1 0x3 SWAP2 PUSH1 0x20 SWAP3 DUP1 DUP5 MSTORE DUP3 DUP8 KECCAK256 SWAP3 PUSH1 0x1 DUP1 PUSH1 0xA0 SHL SUB SWAP5 PUSH2 0xD77 PUSH1 0x1 SWAP6 DUP8 DUP1 DUP9 DUP4 ADD SLOAD AND CALLER EQ SWAP2 DUP3 ISZERO PUSH2 0x10B1 JUMPI POP POP PUSH2 0x126E JUMP JUMPDEST DUP7 DUP10 MSTORE DUP3 DUP2 MSTORE PUSH1 0xFF SWAP8 DUP9 PUSH1 0x5 DUP5 DUP13 KECCAK256 ADD SLOAD AND PUSH1 0x6 DUP2 LT ISZERO PUSH2 0x1024 JUMPI DUP7 PUSH2 0xD9D SWAP2 EQ PUSH2 0x1232 JUMP JUMPDEST DUP8 DUP11 MSTORE DUP4 DUP3 MSTORE DUP3 DUP11 KECCAK256 SWAP1 DUP5 DUP2 LT ISZERO DUP1 PUSH2 0x1037 JUMPI DUP8 DUP3 EQ DUP1 ISZERO PUSH2 0x10A5 JUMPI JUMPDEST ISZERO PUSH2 0x1071 JUMPI DUP9 DUP9 DUP5 ADD SLOAD AND CALLER EQ PUSH1 0x0 EQ PUSH2 0x104A JUMPI PUSH1 0x5 DUP4 ADD SWAP1 PUSH2 0x1037 JUMPI DUP1 SLOAD PUSH2 0xFF00 NOT AND PUSH1 0x8 DUP4 SWAP1 SHL PUSH2 0xFF00 AND OR SWAP1 SSTORE PUSH1 0x5 SWAP2 SWAP1 JUMPDEST PUSH2 0xDFB DUP6 MLOAD DUP1 SWAP3 PUSH2 0x10E6 JUMP JUMPDEST DUP10 PUSH32 0x99C976EDCAEEBEAC7AA3492983B6A1E1E59890B5B38376529BA0E35427FDC1E DUP6 CALLER SWAP4 LOG3 TIMESTAMP PUSH1 0x6 DUP3 ADD SSTORE ADD SLOAD DUP9 DUP2 PUSH1 0x8 SHR AND DUP5 DUP2 LT ISZERO PUSH2 0x1024 JUMPI DUP10 SWAP1 ISZERO ISZERO SWAP2 DUP3 PUSH2 0xFFA JUMPI JUMPDEST POP POP PUSH2 0xE4C JUMPI DUP9 DUP1 RETURN JUMPDEST DUP7 DUP10 MSTORE DUP3 DUP2 MSTORE DUP2 DUP10 KECCAK256 SWAP8 PUSH1 0x5 DUP10 ADD SWAP1 DUP2 SLOAD SWAP1 DUP1 DUP3 PUSH1 0x8 SHR AND DUP7 DUP2 LT ISZERO PUSH2 0xFE7 JUMPI DUP9 DUP2 EQ DUP1 PUSH2 0xFBD JUMPI JUMPDEST ISZERO PUSH2 0xE9B JUMPI POP POP POP POP POP POP POP POP PUSH2 0xE8F SWAP4 ADD SLOAD AND SWAP1 PUSH2 0x12A9 JUMP JUMPDEST CODESIZE DUP1 DUP1 DUP1 DUP1 DUP1 DUP1 DUP1 DUP9 DUP1 RETURN JUMPDEST SWAP7 SWAP8 SWAP6 SWAP7 PUSH1 0x2 EQ SWAP1 DUP2 PUSH2 0xF93 JUMPI JUMPDEST POP ISZERO PUSH2 0xECA JUMPI POP POP POP POP POP POP POP PUSH1 0x2 PUSH2 0xEC5 SWAP4 ADD SLOAD AND SWAP1 PUSH2 0x12A9 JUMP JUMPDEST PUSH2 0xE8F JUMP JUMPDEST PUSH1 0xFF NOT AND PUSH1 0x2 OR SWAP1 SSTORE DUP7 DUP10 MSTORE DUP4 SWAP1 MSTORE DUP8 KECCAK256 SWAP5 SWAP6 POP SWAP2 SWAP4 SWAP2 SWAP3 SWAP2 PUSH1 0x7 ADD DUP7 DUP5 JUMPDEST PUSH2 0xF1D JUMPI JUMPDEST POP POP POP POP POP POP PUSH32 0x715DAAC82F9B9AA17DDECE2F059D6667B3FE54F36BCC4571221F96A00A5B5AA DUP3 DUP1 LOG2 PUSH2 0xE8F JUMP JUMPDEST DUP6 SLOAD DUP2 LT ISZERO PUSH2 0xF8E JUMPI DUP4 PUSH2 0xF30 DUP3 PUSH2 0x1109 JUMP JUMPDEST SWAP1 SLOAD SWAP1 DUP6 SHL SHR AND DUP3 SLOAD PUSH1 0x1 PUSH1 0x40 SHL DUP2 LT ISZERO PUSH2 0xF7B JUMPI SWAP2 PUSH2 0xF73 SWAP2 PUSH2 0xF5C DUP5 DUP10 DUP1 SWAP9 SWAP8 SWAP7 ADD DUP7 SSTORE DUP6 PUSH2 0x1156 JUMP JUMPDEST DUP9 DUP3 SWAP4 SWAP3 SLOAD SWAP2 DUP9 SHL SWAP3 DUP4 SHL SWAP3 SHL NOT AND OR SWAP1 SSTORE PUSH2 0x1200 JUMP JUMPDEST SWAP1 SWAP2 SWAP3 PUSH2 0xEE9 JUMP JUMPDEST PUSH4 0x4E487B71 PUSH1 0xE0 SHL DUP11 MSTORE PUSH1 0x41 DUP9 MSTORE PUSH1 0x24 DUP11 REVERT JUMPDEST PUSH2 0xEEE JUMP JUMPDEST SWAP1 POP DUP2 PUSH1 0x10 SHR AND DUP7 DUP2 LT ISZERO PUSH2 0xFAA JUMPI DUP6 EQ CODESIZE PUSH2 0xEA9 JUMP JUMPDEST PUSH4 0x4E487B71 PUSH1 0xE0 SHL DUP13 MSTORE PUSH1 0x21 DUP9 MSTORE PUSH1 0x24 DUP13 REVERT JUMPDEST POP DUP2 DUP4 PUSH1 0x10 SHR AND DUP8 DUP2 LT ISZERO PUSH2 0xFD4 JUMPI PUSH1 0x2 EQ PUSH2 0xE75 JUMP JUMPDEST PUSH4 0x4E487B71 PUSH1 0xE0 SHL DUP15 MSTORE PUSH1 0x21 DUP10 MSTORE PUSH1 0x24 DUP15 REVERT JUMPDEST PUSH4 0x4E487B71 PUSH1 0xE0 SHL DUP14 MSTORE PUSH1 0x21 DUP9 MSTORE PUSH1 0x24 DUP14 REVERT JUMPDEST PUSH1 0x10 SHR AND SWAP1 POP DUP4 DUP2 LT ISZERO PUSH2 0x1011 JUMPI ISZERO ISZERO DUP9 CODESIZE PUSH2 0xE42 JUMP JUMPDEST PUSH4 0x4E487B71 PUSH1 0xE0 SHL DUP11 MSTORE PUSH1 0x21 DUP6 MSTORE PUSH1 0x24 DUP11 REVERT JUMPDEST PUSH4 0x4E487B71 PUSH1 0xE0 SHL DUP12 MSTORE PUSH1 0x21 DUP7 MSTORE PUSH1 0x24 DUP12 REVERT JUMPDEST PUSH4 0x4E487B71 PUSH1 0xE0 SHL DUP13 MSTORE PUSH1 0x21 DUP8 MSTORE PUSH1 0x24 DUP13 REVERT JUMPDEST PUSH1 0x5 DUP4 ADD SWAP1 PUSH2 0x1037 JUMPI DUP1 SLOAD PUSH3 0xFF0000 NOT AND PUSH1 0x10 DUP4 SWAP1 SHL PUSH3 0xFF0000 AND OR SWAP1 SSTORE PUSH1 0x5 SWAP2 SWAP1 PUSH2 0xDEF JUMP JUMPDEST DUP5 MLOAD PUSH3 0x461BCD PUSH1 0xE5 SHL DUP2 MSTORE DUP1 DUP9 ADD DUP6 SWAP1 MSTORE PUSH1 0xE PUSH1 0x24 DUP3 ADD MSTORE PUSH14 0x125B9D985B1A59081C995CDD5B1D PUSH1 0x92 SHL PUSH1 0x44 DUP3 ADD MSTORE PUSH1 0x64 SWAP1 REVERT JUMPDEST POP POP DUP11 PUSH1 0x2 DUP3 EQ PUSH2 0xDBA JUMP JUMPDEST PUSH1 0x2 SWAP2 SWAP3 POP ADD SLOAD AND CALLER EQ DUP8 CODESIZE PUSH2 0x370 JUMP JUMPDEST PUSH1 0x40 SWAP1 PUSH1 0x3 NOT ADD SLT PUSH2 0x10E1 JUMPI PUSH1 0x4 CALLDATALOAD SWAP1 PUSH1 0x24 CALLDATALOAD PUSH1 0x3 DUP2 LT ISZERO PUSH2 0x10E1 JUMPI SWAP1 JUMP JUMPDEST PUSH1 0x0 DUP1 REVERT JUMPDEST SWAP1 PUSH1 0x3 DUP3 LT ISZERO PUSH2 0x10F3 JUMPI MSTORE JUMP JUMPDEST PUSH4 0x4E487B71 PUSH1 0xE0 SHL PUSH1 0x0 MSTORE PUSH1 0x21 PUSH1 0x4 MSTORE PUSH1 0x24 PUSH1 0x0 REVERT JUMPDEST PUSH1 0x4 SLOAD DUP2 LT ISZERO PUSH2 0x1140 JUMPI PUSH1 0x4 PUSH1 0x0 MSTORE PUSH32 0x8A35ACFBC15FF81A39AE7D344FD709F28E8600B4AA8C65C6B64BFE7FE36BD19B ADD SWAP1 PUSH1 0x0 SWAP1 JUMP JUMPDEST PUSH4 0x4E487B71 PUSH1 0xE0 SHL PUSH1 0x0 MSTORE PUSH1 0x32 PUSH1 0x4 MSTORE PUSH1 0x24 PUSH1 0x0 REVERT JUMPDEST DUP1 SLOAD DUP3 LT ISZERO PUSH2 0x1140 JUMPI PUSH1 0x0 MSTORE PUSH1 0x20 PUSH1 0x0 KECCAK256 ADD SWAP1 PUSH1 0x0 SWAP1 JUMP JUMPDEST PUSH1 0x1 SLOAD PUSH1 0x1 PUSH1 0x1 PUSH1 0xA0 SHL SUB AND CALLER SUB PUSH2 0x1182 JUMPI JUMP JUMPDEST PUSH1 0x40 MLOAD PUSH4 0x118CDAA7 PUSH1 0xE0 SHL DUP2 MSTORE CALLER PUSH1 0x4 DUP3 ADD MSTORE PUSH1 0x24 SWAP1 REVERT JUMPDEST SWAP2 SWAP1 DUP3 ADD DUP1 SWAP3 GT PUSH2 0x11A7 JUMPI JUMP JUMPDEST PUSH4 0x4E487B71 PUSH1 0xE0 SHL PUSH1 0x0 MSTORE PUSH1 0x11 PUSH1 0x4 MSTORE PUSH1 0x24 PUSH1 0x0 REVERT JUMPDEST ISZERO PUSH2 0x11C4 JUMPI JUMP JUMPDEST PUSH1 0x40 MLOAD PUSH3 0x461BCD PUSH1 0xE5 SHL DUP2 MSTORE PUSH1 0x20 PUSH1 0x4 DUP3 ADD MSTORE PUSH1 0x14 PUSH1 0x24 DUP3 ADD MSTORE PUSH20 0x125B98DBDC9C9958DD081D985B1D59481CD95B9D PUSH1 0x62 SHL PUSH1 0x44 DUP3 ADD MSTORE PUSH1 0x64 SWAP1 REVERT JUMPDEST PUSH1 0x0 NOT DUP2 EQ PUSH2 0x11A7 JUMPI PUSH1 0x1 ADD SWAP1 JUMP JUMPDEST PUSH1 0x2 PUSH1 0x0 SLOAD EQ PUSH2 0x1220 JUMPI PUSH1 0x2 PUSH1 0x0 SSTORE JUMP JUMPDEST PUSH1 0x40 MLOAD PUSH4 0x3EE5AEB5 PUSH1 0xE0 SHL DUP2 MSTORE PUSH1 0x4 SWAP1 REVERT JUMPDEST ISZERO PUSH2 0x1239 JUMPI JUMP JUMPDEST PUSH1 0x40 MLOAD PUSH3 0x461BCD PUSH1 0xE5 SHL DUP2 MSTORE PUSH1 0x20 PUSH1 0x4 DUP3 ADD MSTORE PUSH1 0xD PUSH1 0x24 DUP3 ADD MSTORE PUSH13 0x496E76616C6964207374617465 PUSH1 0x98 SHL PUSH1 0x44 DUP3 ADD MSTORE PUSH1 0x64 SWAP1 REVERT JUMPDEST ISZERO PUSH2 0x1275 JUMPI JUMP JUMPDEST PUSH1 0x40 MLOAD PUSH3 0x461BCD PUSH1 0xE5 SHL DUP2 MSTORE PUSH1 0x20 PUSH1 0x4 DUP3 ADD MSTORE PUSH1 0xC PUSH1 0x24 DUP3 ADD MSTORE PUSH12 0x2737BA103090383630BCB2B9 PUSH1 0xA1 SHL PUSH1 0x44 DUP3 ADD MSTORE PUSH1 0x64 SWAP1 REVERT JUMPDEST PUSH1 0x0 DUP2 DUP2 MSTORE PUSH1 0x3 PUSH1 0x20 MSTORE PUSH1 0x40 DUP2 KECCAK256 SWAP3 PUSH1 0x5 DUP5 ADD PUSH1 0x4 PUSH1 0xFF NOT DUP3 SLOAD AND OR SWAP1 SSTORE PUSH1 0x3 DUP5 ADD SLOAD DUP1 PUSH1 0x1 SHL SWAP1 DUP1 DUP3 DIV PUSH1 0x2 EQ SWAP1 ISZERO OR ISZERO PUSH2 0x13CE JUMPI PUSH1 0x4 DUP6 ADD SLOAD SWAP2 DUP3 PUSH1 0x1 SHL SWAP2 DUP4 ISZERO SWAP3 DUP5 DUP2 DIV PUSH1 0x2 EQ DUP5 OR ISZERO PUSH2 0x13BA JUMPI DUP2 PUSH2 0x1309 DUP7 SWAP3 PUSH2 0x130F SWAP5 PUSH2 0x119A JUMP JUMPDEST POP PUSH2 0x119A JUMP JUMPDEST PUSH1 0x1 DUP8 ADD SLOAD PUSH1 0x1 PUSH1 0x1 PUSH1 0xA0 SHL SUB SWAP3 DUP4 AND SWAP8 DUP7 SWAP2 DUP3 SWAP2 DUP3 SWAP2 DUP3 SWAP2 DUP8 SWAP2 DUP3 AND DUP14 DUP2 SUB PUSH2 0x13B1 JUMPI POP PUSH1 0x2 ADD SLOAD AND SWAP5 JUMPDEST DUP12 DUP3 DUP3 ISZERO PUSH2 0x13A8 JUMPI JUMPDEST CALL ISZERO PUSH2 0x139D JUMPI DUP5 SWAP4 DUP5 SWAP4 DUP5 SWAP4 DUP5 SWAP4 DUP5 SWAP3 PUSH2 0x1393 JUMPI JUMPDEST AND SWAP1 CALL ISZERO PUSH2 0x1387 JUMPI DUP1 PUSH32 0x1C560E9F349CD346794F9D534FB852628D58CC7A726D0ADB57820FAE0A50CD47 SWAP2 LOG3 JUMP JUMPDEST PUSH1 0x40 MLOAD SWAP1 RETURNDATASIZE SWAP1 DUP3 RETURNDATACOPY RETURNDATASIZE SWAP1 REVERT JUMPDEST PUSH2 0x8FC SWAP3 POP PUSH2 0x1359 JUMP JUMPDEST PUSH1 0x40 MLOAD RETURNDATASIZE DUP7 DUP3 RETURNDATACOPY RETURNDATASIZE SWAP1 REVERT JUMPDEST POP PUSH2 0x8FC PUSH2 0x1344 JUMP JUMPDEST SWAP2 POP POP SWAP5 PUSH2 0x133B JUMP JUMPDEST PUSH4 0x4E487B71 PUSH1 0xE0 SHL DUP7 MSTORE PUSH1 0x11 PUSH1 0x4 MSTORE PUSH1 0x24 DUP7 REVERT JUMPDEST PUSH4 0x4E487B71 PUSH1 0xE0 SHL DUP4 MSTORE PUSH1 0x11 PUSH1 0x4 MSTORE PUSH1 0x24 DUP4 REVERT JUMPDEST PUSH1 0x0 MSTORE PUSH1 0x3 SWAP1 DUP2 PUSH1 0x20 MSTORE PUSH1 0x40 PUSH1 0x0 KECCAK256 SWAP2 PUSH1 0x7 PUSH1 0x0 SWAP4 ADD DUP1 SLOAD SWAP4 JUMPDEST DUP5 DUP2 LT PUSH2 0x140D JUMPI POP POP POP POP POP PUSH1 0x0 SWAP1 JUMP JUMPDEST PUSH2 0x1417 DUP2 DUP4 PUSH2 0x1156 JUMP JUMPDEST SWAP1 SLOAD SWAP1 DUP5 SHL SHR PUSH1 0x1 PUSH1 0x1 PUSH1 0xA0 SHL SUB SWAP1 DUP2 AND SWAP1 DUP6 AND EQ PUSH2 0x143E JUMPI PUSH2 0x1439 SWAP1 PUSH2 0x1200 JUMP JUMPDEST PUSH2 0x13FC JUMP JUMPDEST POP POP POP POP POP PUSH1 0x1 SWAP1 JUMP JUMPDEST PUSH1 0x0 DUP2 DUP2 MSTORE PUSH1 0x3 PUSH1 0x20 MSTORE PUSH1 0x40 DUP2 KECCAK256 PUSH1 0x5 DUP2 ADD PUSH1 0x4 PUSH1 0xFF NOT DUP3 SLOAD AND OR SWAP1 SSTORE PUSH1 0x3 DUP2 ADD SLOAD SWAP1 DUP2 PUSH1 0x1 SHL SWAP2 DUP1 DUP4 DIV PUSH1 0x2 EQ SWAP1 ISZERO OR ISZERO PUSH2 0x13CE JUMPI PUSH1 0x4 ADD SLOAD SWAP1 DUP2 PUSH1 0x1 SHL SWAP2 DUP1 DUP4 DIV PUSH1 0x2 EQ SWAP1 ISZERO OR ISZERO PUSH2 0x13CE JUMPI DUP3 DUP1 PUSH2 0x14A4 DUP2 SWAP5 DUP3 SWAP5 PUSH2 0x119A JUMP JUMPDEST PUSH1 0x1 PUSH1 0x1 PUSH1 0xA0 SHL SUB SWAP1 SWAP8 AND SWAP7 DUP8 DUP3 DUP3 ISZERO PUSH2 0x14E5 JUMPI JUMPDEST CALL ISZERO PUSH2 0x1387 JUMPI DUP1 PUSH32 0x1C560E9F349CD346794F9D534FB852628D58CC7A726D0ADB57820FAE0A50CD47 SWAP2 LOG3 JUMP JUMPDEST POP PUSH2 0x8FC PUSH2 0x14B9 JUMP INVALID LOG2 PUSH5 0x6970667358 0x22 SLT KECCAK256 SDIV SELFDESTRUCT 0xCF 0x26 0xA7 0xFB DELEGATECALL CALLDATASIZE PUSH2 0xE1F7 0xAE 0xDF 0x4C 0xCC SWAP2 PUSH4 0xC5AE0752 0xC8 0xB0 PUSH18 0xBBD7B185B218BF4164736F6C634300081400 CALLER "},"methodIdentifiers":{"JURY_SIZE()":"afaec527","TIMEOUT_WINDOW()":"7ca23b94","addMockJuror(address)":"5a8fe26f","claimTimeoutVictory(uint256)":"eff53a69","createMatch(uint256,uint256)":"f5a0ea6c","joinMatch(uint256)":"feb8c438","juryVote(uint256,uint8)":"1f7e507e","matchIdCounter()":"4fdc2fb4","matches(uint256)":"4768d4ef","mockJurors(uint256)":"8f52d9d4","owner()":"8da5cb5b","renounceOwnership()":"715018a6","submitResult(uint256,uint8)":"1318e27b","transferOwnership(address)":"f2fde38b","voteToCancel(uint256)":"1e01fc2f","withdrawPreMatch(uint256)":"8e9836b6"}}}}}