{"abi":[{"type":"constructor","inputs":[],"stateMutability":"nonpayable"},{"type":"function","name":"JURY_SIZE","inputs":[],"outputs":[{"name":"","type":"uint256","internalType":"uint256"}],"stateMutability":"view"},{"type":"function","name":"TIMEOUT_WINDOW","inputs":[],"outputs":[{"name":"","type":"uint256","internalType":"uint256"}],"stateMutability":"view"},{"type":"function","name":"addMockJuror","inputs":[{"name":"_juror","type":"address","internalType":"address"}],"outputs":[],"stateMutability":"nonpayable"},{"type":"function","name":"claimTimeoutVictory","inputs":[{"name":"_matchId","type":"uint256","internalType":"uint256"}],"outputs":[],"stateMutability":"nonpayable"},{"type":"function","name":"createMatch","inputs":[{"name":"_wagerAmount","type":"uint256","internalType":"uint256"},{"name":"_bondAmount","type":"uint256","internalType":"uint256"}],"outputs":[],"stateMutability":"payable"},{"type":"function","name":"joinMatch","inputs":[{"name":"_matchId","type":"uint256","internalType":"uint256"}],"outputs":[],"stateMutability":"payable"},{"type":"function","name":"juryVote","inputs":[{"name":"_matchId","type":"uint256","internalType":"uint256"},{"name":"_vote","type":"uint8","internalType":"enum SkillWager.Result"}],"outputs":[],"stateMutability":"nonpayable"},{"type":"function","name":"matchIdCounter","inputs":[],"outputs":[{"name":"","type":"uint256","internalType":"uint256"}],"stateMutability":"view"},{"type":"function","name":"matches","inputs":[{"name":"","type":"uint256","internalType":"uint256"}],"outputs":[{"name":"id","type":"uint256","internalType":"uint256"},{"name":"playerA","type":"address","internalType":"address"},{"name":"playerB","type":"address","internalType":"address"},{"name":"wagerAmount","type":"uint256","internalType":"uint256"},{"name":"bondAmount","type":"uint256","internalType":"uint256"},{"name":"state","type":"uint8","internalType":"enum SkillWager.MatchState"},{"name":"resultA","type":"uint8","internalType":"enum SkillWager.Result"},{"name":"resultB","type":"uint8","internalType":"enum SkillWager.Result"},{"name":"lastActionTimestamp","type":"uint256","internalType":"uint256"},{"name":"votesForA","type":"uint256","internalType":"uint256"},{"name":"votesForB","type":"uint256","internalType":"uint256"},{"name":"cancelVoteA","type":"bool","internalType":"bool"},{"name":"cancelVoteB","type":"bool","internalType":"bool"}],"stateMutability":"view"},{"type":"function","name":"mockJurors","inputs":[{"name":"","type":"uint256","internalType":"uint256"}],"outputs":[{"name":"","type":"address","internalType":"address"}],"stateMutability":"view"},{"type":"function","name":"owner","inputs":[],"outputs":[{"name":"","type":"address","internalType":"address"}],"stateMutability":"view"},{"type":"function","name":"renounceOwnership","inputs":[],"outputs":[],"stateMutability":"nonpayable"},{"type":"function","name":"submitResult","inputs":[{"name":"_matchId","type":"uint256","internalType":"uint256"},{"name":"_result","type":"uint8","internalType":"enum SkillWager.Result"}],"outputs":[],"stateMutability":"nonpayable"},{"type":"function","name":"transferOwnership","inputs":[{"name":"newOwner","type":"address","internalType":"address"}],"outputs":[],"stateMutability":"nonpayable"},{"type":"function","name":"voteToCancel","inputs":[{"name":"_matchId","type":"uint256","internalType":"uint256"}],"outputs":[],"stateMutability":"nonpayable"},{"type":"function","name":"withdrawPreMatch","inputs":[{"name":"_matchId","type":"uint256","internalType":"uint256"}],"outputs":[],"stateMutability":"nonpayable"},{"type":"event","name":"DisputeStarted","inputs":[{"name":"matchId","type":"uint256","indexed":true,"internalType":"uint256"}],"anonymous":false},{"type":"event","name":"JuryVoted","inputs":[{"name":"matchId","type":"uint256","indexed":true,"internalType":"uint256"},{"name":"juror","type":"address","indexed":true,"internalType":"address"},{"name":"vote","type":"uint8","indexed":false,"internalType":"enum SkillWager.Result"}],"anonymous":false},{"type":"event","name":"MatchCancelled","inputs":[{"name":"matchId","type":"uint256","indexed":true,"internalType":"uint256"}],"anonymous":false},{"type":"event","name":"MatchCreated","inputs":[{"name":"matchId","type":"uint256","indexed":true,"internalType":"uint256"},{"name":"playerA","type":"address","indexed":true,"internalType":"address"},{"name":"wager","type":"uint256","indexed":false,"internalType":"uint256"},{"name":"bond","type":"uint256","indexed":false,"internalType":"uint256"}],"anonymous":false},{"type":"event","name":"MatchJoined","inputs":[{"name":"matchId","type":"uint256","indexed":true,"internalType":"uint256"},{"name":"playerB","type":"address","indexed":true,"internalType":"address"}],"anonymous":false},{"type":"event","name":"MatchResolved","inputs":[{"name":"matchId","type":"uint256","indexed":true,"internalType":"uint256"},{"name":"winner","type":"address","indexed":true,"internalType":"address"}],"anonymous":false},{"type":"event","name":"OwnershipTransferred","inputs":[{"name":"previousOwner","type":"address","indexed":true,"internalType":"address"},{"name":"newOwner","type":"address","indexed":true,"internalType":"address"}],"anonymous":false},{"type":"event","name":"ResultSubmitted","inputs":[{"name":"matchId","type":"uint256","indexed":true,"internalType":"uint256"},{"name":"player","type":"address","indexed":true,"internalType":"address"},{"name":"result","type":"uint8","indexed":false,"internalType":"enum SkillWager.Result"}],"anonymous":false},{"type":"error","name":"OwnableInvalidOwner","inputs":[{"name":"owner","type":"address","internalType":"address"}]},{"type":"error","name":"OwnableUnauthorizedAccount","inputs":[{"name":"account","type":"address","internalType":"address"}]},{"type":"error","name":"ReentrancyGuardReentrantCall","inputs":[]}],"bytecode":{"object":"0x6080806040523461007c5760015f5533156100675760018054336001600160a01b03198216811790925560405191906001600160a01b03167f8be0079c531659141344cd1fd0a4f28419497f9722a3daafe3b4186f6b6457e05f80a361150990816100818239f35b631e4fbdf760e01b81525f6004820152602490fd5b5f80fdfe604060808152600480361015610013575f80fd5b5f91823560e01c80631318e27b14610d2b5780631e01fc2f14610b3f5780631f7e507e146108c95780634768d4ef146107d15780634fdc2fb4146107b25780635a8fe26f1461073d578063715018a6146106e05780637ca23b94146106c35780638da5cb5b1461069a5780638e9836b61461058d5780638f52d9d41461054a578063afaec5271461052a578063eff53a691461032f578063f2fde38b1461029e578063f5a0ea6c146101f05763feb8c438146100cd575f80fd5b60203660031901126101ec578135916100e46111fc565b828452600360205260ff600583862001541660068110156101d957610109901561121d565b82845260036020528184209160018060a01b03600184015416331461019e575061013f610146916003840154908401549061118a565b34146111ab565b60028101336001600160601b0360a01b82541617905560058101600160ff1982541617905560064291015533907f50d6e5d288766a7340b6110b6738cac822c48c128a47399df2fad303041f8d508380a36001815580f35b906020606492519162461bcd60e51b83528201526015602482015274086c2dcdcdee840d4ded2dc40deeedc40dac2e8c6d605b1b6044820152fd5b634e487b7160e01b855260218252602485fd5b8280fd5b5090816003193601126101ec577fab8c9f12c79b09660cc1e067055451fdf910f3c9bf0349316c5bd5dd14619acc81359260243561022c6111fc565b61023961013f828761118a565b60025493610246856111ee565b6002558487526003602052818388209186835560018301336001600160601b0360a01b8254161790558760038401558201556005810160ff198154169055600642910155815194855260208501523393a36001815580f35b50346101ec5760203660031901126101ec576001600160a01b0382358181169391929084900361032b576102d061115e565b8315610315575050600154826001600160601b0360a01b821617600155167f8be0079c531659141344cd1fd0a4f28419497f9722a3daafe3b4186f6b6457e08380a380f35b51631e4fbdf760e01b8152908101849052602490fd5b8480fd5b5090346101ec57602080600319360112610526578135928385526003825280852061037460018060a01b039182806001830154163314918215610515575b5050611259565b8486526003835260ff6005838820015416600681101561049b57600161039a911461121d565b8486526003835281862090600682015461012c8101809111610502574211156104c957600560ff91600184015416331492835f146104ba57828282015460081c16935b156104ae57015460101c16905b600381101561049b5760010361046257600381101561044f5761041557846104123386611294565b80f35b5162461bcd60e51b815291820152601660248201527513dc1c1bdb995b9d08185b1c9958591e481858dd195960521b604482015260649150fd5b634e487b7160e01b865260218452602486fd5b505162461bcd60e51b8152918201526014602482015273135d5cdd0818db185a5b481dda5b88199a5c9cdd60621b604482015260649150fd5b634e487b7160e01b875260218552602487fd5b015460081c16906103ea565b828282015460101c16936103dd565b50505162461bcd60e51b8152918201526013602482015272151a5b595bdd5d081b9bdd081c995858da1959606a1b604482015260649150fd5b634e487b7160e01b885260118652602488fd5b60029192500154163314825f61036d565b8380fd5b8382346105465781600319360112610546576020905160038152f35b5080fd5b50823461058a57602036600319011261058a578235925483101561058a5750610574602092611100565b905491519160018060a01b039160031b1c168152f35b80fd5b50346101ec5760203660031901126101ec578135916105aa6111fc565b828452600360205260ff600583862001541660068110156101d9576105cf901561121d565b828452600360205281842060018101546001600160a01b0316913383900361066857858093610619848395946005859601600560ff1982541617905560038201549101549061118a565b9082821561065f575bf11561065457507f700135b4fe8746e2d2c85a9baa43c62887740aebfeb3a439f71a083fe5d567598280a26001815580f35b51913d9150823e3d90fd5b506108fc610622565b606490602085519162461bcd60e51b8352820152600c60248201526b27b7363c9031b932b0ba37b960a11b6044820152fd5b83823461054657816003193601126105465760015490516001600160a01b039091168152602090f35b8382346105465781600319360112610546576020905161012c8152f35b833461058a578060031936011261058a576106f961115e565b600180546001600160a01b0319811690915581906001600160a01b03167f8be0079c531659141344cd1fd0a4f28419497f9722a3daafe3b4186f6b6457e08280a380f35b82843461058a57602036600319011261058a576001600160a01b038235818116908190036101ec5761076d61115e565b8354600160401b81101561079f5760018101855561078a90611100565b909283549160031b92831b921b191617905580f35b634e487b7160e01b845260418552602484fd5b8382346105465781600319360112610546576020906002549051908152f35b50823461058a57602036600319011261058a5782358152600360205281812080549260018060a01b03928360018401541693600284015416906003840154878501549160058601549260ff841692600688015495600989015497600b600a8b01549a01549a81519c8d5260208d01528b015260608a0152608089015260068210156108b6576101a08860ff8989898961088b8a8a60a089015261087c60c08901888360081c166110df565b8660e089019160101c166110df565b610100860152610120850152610140840152818116151561016084015260081c161515610180820152f35b634e487b7160e01b815260218952602490fd5b5090346101ec576108d9366110bc565b81859392935260206003815260ff60058688200154166006811015610b2c576002610904911461121d565b838652600381528486209461091933866113cc565b15610afd576008860133885280835260ff82892054166003811015610ab757610aca5760038410159081610ab75760018514808015610aaa575b15610a785782610a655715610a44576009880161097081546111ee565b90555b338952835281882090610a3157916109bd7f8ed593b386877faf4c9856297fea257c8cee329002d75c2fea35240030c9c54992879460ff1981541660ff88161790555180956110df565b3393a3600783015460011c9060018201809211610a1e5750600983015481116109f75750610412916001808060a01b03910154169061142e565b600a8301541015610a0757505080f35b61041291600260018060a01b03910154169061142e565b634e487b7160e01b855260119052602484fd5b634e487b7160e01b885260218552602488fd5b889150600119850161097357600a8801610a5e81546111ee565b9055610973565b634e487b7160e01b8a526021875260248afd5b835162461bcd60e51b8152808801869052600c60248201526b496e76616c696420766f746560a01b6044820152606490fd5b5089925060028614610953565b634e487b7160e01b895260218652602489fd5b815162461bcd60e51b8152808601849052600d60248201526c105b1c9958591e481d9bdd1959609a1b6044820152606490fd5b5162461bcd60e51b81529283015250600b60248201526a2737ba103090353ab937b960a91b6044820152606490fd5b634e487b7160e01b875260218452602487fd5b50346101ec5760203660031901126101ec57813591828452600360205281842090610b8360018060a01b039283806001830154163314918215610d1a575050611259565b8385526003602052828520916005830160ff8154166006811015610d075760018114908115610cfc575b5015610cc5579083929160018895018281541633145f14610caf57600b8501805460ff191660011790555b600b85015460ff81169081610ca1575b50610bf1578580f35b8291600560ff19825416179055541692848080806003850197610c1b89549887019889549061118a565b90828215610c98575bf115610c8e5792610c4585949385949360028695015416925490549061118a565b90828215610c85575bf11561065457507f700135b4fe8746e2d2c85a9baa43c62887740aebfeb3a439f71a083fe5d567598280a25f808281808080808580f35b506108fc610c4e565b85513d86823e3d90fd5b506108fc610c24565b60ff915060081c165f610be8565b600b8501805461ff001916610100179055610bd8565b845162461bcd60e51b8152602081850152601160248201527043616e6e6f742063616e63656c206e6f7760781b6044820152606490fd5b60029150145f610bad565b634e487b7160e01b885260218452602488fd5b60029192500154163314835f61036d565b50346101ec57610d3a366110bc565b9290918285526003916020928084528287209260018060a01b0394610d726001958780888301541633149182156110ab575050611259565b86895282815260ff97886005848c20015416600681101561101e5786610d98911461121d565b878a52838252828a2090848110158061103157878214801561109f575b1561106b5788888401541633145f1461104457600583019061103157805461ff001916600883901b61ff0016179055600591905b610df5855180926110df565b897f099c976edcaeebeac7aa3492983b6a1e1e59890b5b38376529ba0e35427fdc1e853393a34260068201550154888160081c168481101561101e57899015159182610ff4575b5050610e46578880f35b868952828152818920976005890190815490808260081c1686811015610fe15788811480610fb7575b15610e95575050505050505050610e899301541690611294565b5f808080808080808880f35b969795966002149081610f8d575b5015610ec457505050505050506002610ebf9301541690611294565b610e89565b60ff191660021790558689528390528720949550919391929160070186845b610f17575b5050505050507f0715daac82f9b9aa17ddece2f059d6667b3fe54f36bcc4571221f96a00a5b5aa8280a2610e89565b8554811015610f885783610f2a82611100565b905490851b1c168254600160401b811015610f755791610f6d91610f5684898098979601865585611149565b888293925491881b92831b921b19161790556111ee565b909192610ee3565b634e487b7160e01b8a526041885260248afd5b610ee8565b90508160101c1686811015610fa45785145f610ea3565b634e487b7160e01b8c526021885260248cfd5b50818360101c1687811015610fce57600214610e6f565b634e487b7160e01b8e526021895260248efd5b634e487b7160e01b8d526021885260248dfd5b60101c1690508381101561100b571515885f610e3c565b634e487b7160e01b8a526021855260248afd5b634e487b7160e01b8b526021865260248bfd5b634e487b7160e01b8c526021875260248cfd5b600583019061103157805462ff00001916601083901b62ff00001617905560059190610de9565b845162461bcd60e51b8152808801859052600e60248201526d125b9d985b1a59081c995cdd5b1d60921b6044820152606490fd5b50508a60028214610db5565b60029192500154163314875f61036d565b60409060031901126110db576004359060243560038110156110db5790565b5f80fd5b9060038210156110ec5752565b634e487b7160e01b5f52602160045260245ffd5b6004548110156111355760045f527f8a35acfbc15ff81a39ae7d344fd709f28e8600b4aa8c65c6b64bfe7fe36bd19b01905f90565b634e487b7160e01b5f52603260045260245ffd5b8054821015611135575f5260205f2001905f90565b6001546001600160a01b0316330361117257565b60405163118cdaa760e01b8152336004820152602490fd5b9190820180921161119757565b634e487b7160e01b5f52601160045260245ffd5b156111b257565b60405162461bcd60e51b8152602060048201526014602482015273125b98dbdc9c9958dd081d985b1d59481cd95b9d60621b6044820152606490fd5b5f1981146111975760010190565b60025f541461120b5760025f55565b604051633ee5aeb560e01b8152600490fd5b1561122457565b60405162461bcd60e51b815260206004820152600d60248201526c496e76616c696420737461746560981b6044820152606490fd5b1561126057565b60405162461bcd60e51b815260206004820152600c60248201526b2737ba103090383630bcb2b960a11b6044820152606490fd5b5f8181526003602052604081209260058401600460ff1982541617905560038401548060011b90808204600214901517156113b8576004850154918260011b918315928481046002148417156113a457816112f386926112f99461118a565b5061118a565b60018701546001600160a01b03928316978691829182918291879182168d810361139b57506002015416945b8b828215611392575bf115611387578493849384938493849261137d575b1690f11561137157807f1c560e9f349cd346794f9d534fb852628d58cc7a726d0adb57820fae0a50cd4791a3565b604051903d90823e3d90fd5b6108fc9250611343565b6040513d86823e3d90fd5b506108fc61132e565b91505094611325565b634e487b7160e01b86526011600452602486fd5b634e487b7160e01b83526011600452602483fd5b5f526003908160205260405f209160075f93018054935b8481106113f35750505050505f90565b6113fd8183611149565b905490841b1c6001600160a01b03908116908516146114245761141f906111ee565b6113e3565b5050505050600190565b5f81815260036020526040812060058101600460ff198254161790556003810154908160011b91808304600214901517156113b85760040154908160011b91808304600214901517156113b85782806114898194829461118a565b6001600160a01b0390971696878282156114ca575bf11561137157807f1c560e9f349cd346794f9d534fb852628d58cc7a726d0adb57820fae0a50cd4791a3565b506108fc61149e56fea2646970667358221220de672ae6c4c93d4a54b13496974c76e87d8fe6e55ab66abd7f518a813f3e86f064736f6c63430008140033","linkReferences":{}},"methodIdentifiers":{"JURY_SIZE()":"afaec527","TIMEOUT_WINDOW()":"7ca23b94","addMockJuror(address)":"5a8fe26f","claimTimeoutVictory(uint256)":"eff53a69","createMatch(uint256,uint256)":"f5a0ea6c","joinMatch(uint256)":"feb8c438","juryVote(uint256,uint8)":"1f7e507e","matchIdCounter()":"4fdc2fb4","matches(uint256)":"4768d4ef","mockJurors(uint256)":"8f52d9d4","owner()":"8da5cb5b","renounceOwnership()":"715018a6","submitResult(uint256,uint8)":"1318e27b","transferOwnership(address)":"f2fde38b","voteToCancel(uint256)":"1e01fc2f","withdrawPreMatch(uint256)":"8e9836b6"},"id":19}