{
  "_format": "hh-sol-artifact-1",
  "contractName": "SkillWager",
  "sourceName": "contracts/SkillWager.sol",
  "abi": [
    {
      "inputs": [],
      "stateMutability": "nonpayable",
      "type": "constructor"
    },
    {
      "inputs": [
        {
          "internalType": "address",
          "name": "owner",
          "type": "address"
        }
      ],
      "name": "OwnableInvalidOwner",
      "type": "error"
    },
    {
      "inputs": [
        {
          "internalType": "address",
          "name": "account",
          "type": "address"
        }
      ],
      "name": "OwnableUnauthorizedAccount",
      "type": "error"
    },
    {
      "inputs": [],
      "name": "ReentrancyGuardReentrantCall",
      "type": "error"
    },
    {
      "anonymous": false,
      "inputs": [
        {
          "indexed": true,
          "internalType": "uint256",
          "name": "matchId",
          "type": "uint256"
        }
      ],
      "name": "DisputeStarted",
      "type": "event"
    },
    {
      "anonymous": false,
      "inputs": [
        {
          "indexed": true,
          "internalType": "uint256",
          "name": "matchId",
          "type": "uint256"
        },
        {
          "indexed": true,
          "internalType": "address",
          "name": "juror",
          "type": "address"
        },
        {
          "indexed": false,
          "internalType": "enum SkillWager.Result",
          "name": "vote",
          "type": "uint8"
        }
      ],
      "name": "JuryVoted",
      "type": "event"
    },
    {
      "anonymous": false,
      "inputs": [
        {
          "indexed": true,
          "internalType": "uint256",
          "name": "matchId",
          "type": "uint256"
        }
      ],
      "name": "MatchCancelled",
      "type": "event"
    },
    {
      "anonymous": false,
      "inputs": [
        {
          "indexed": true,
          "internalType": "uint256",
          "name": "matchId",
          "type": "uint256"
        },
        {
          "indexed": true,
          "internalType": "address",
          "name": "playerA",
          "type": "address"
        },
        {
          "indexed": false,
          "internalType": "uint256",
          "name": "wager",
          "type": "uint256"
        },
        {
          "indexed": false,
          "internalType": "uint256",
          "name": "bond",
          "type": "uint256"
        }
      ],
      "name": "MatchCreated",
      "type": "event"
    },
    {
      "anonymous": false,
      "inputs": [
        {
          "indexed": true,
          "internalType": "uint256",
          "name": "matchId",
          "type": "uint256"
        },
        {
          "indexed": true,
          "internalType": "address",
          "name": "playerB",
          "type": "address"
        }
      ],
      "name": "MatchJoined",
      "type": "event"
    },
    {
      "anonymous": false,
      "inputs": [
        {
          "indexed": true,
          "internalType": "uint256",
          "name": "matchId",
          "type": "uint256"
        },
        {
          "indexed": true,
          "internalType": "address",
          "name": "winner",
          "type": "address"
        }
      ],
      "name": "MatchResolved",
      "type": "event"
    },
    {
      "anonymous": false,
      "inputs": [
        {
          "indexed": true,
          "internalType": "address",
          "name": "previousOwner",
          "type": "address"
        },
        {
          "indexed": true,
          "internalType": "address",
          "name": "newOwner",
          "type": "address"
        }
      ],
      "name": "OwnershipTransferred",
      "type": "event"
    },
    {
      "anonymous": false,
      "inputs": [
        {
          "indexed": true,
          "internalType": "uint256",
          "name": "matchId",
          "type": "uint256"
        },
        {
          "indexed": true,
          "internalType": "address",
          "name": "player",
          "type": "address"
        },
        {
          "indexed": false,
          "internalType": "enum SkillWager.Result",
          "name": "result",
          "type": "uint8"
        }
      ],
      "name": "ResultSubmitted",
      "type": "event"
    },
    {
      "inputs": [],
      "name": "JURY_SIZE",
      "outputs": [
        {
          "internalType": "uint256",
          "name": "",
          "type": "uint256"
        }
      ],
      "stateMutability": "view",
      "type": "function"
    },
    {
      "inputs": [],
      "name": "TIMEOUT_WINDOW",
      "outputs": [
        {
          "internalType": "uint256",
          "name": "",
          "type": "uint256"
        }
      ],
      "stateMutability": "view",
      "type": "function"
    },
    {
      "inputs": [
        {
          "internalType": "address",
          "name": "_juror",
          "type": "address"
        }
      ],
      "name": "addMockJuror",
      "outputs": [],
      "stateMutability": "nonpayable",
      "type": "function"
    },
    {
      "inputs": [
        {
          "internalType": "uint256",
          "name": "_matchId",
          "type": "uint256"
        }
      ],
      "name": "claimTimeoutVictory",
      "outputs": [],
      "stateMutability": "nonpayable",
      "type": "function"
    },
    {
      "inputs": [
        {
          "internalType": "uint256",
          "name": "_wagerAmount",
          "type": "uint256"
        },
        {
          "internalType": "uint256",
          "name": "_bondAmount",
          "type": "uint256"
        }
      ],
      "name": "createMatch",
      "outputs": [],
      "stateMutability": "payable",
      "type": "function"
    },
    {
      "inputs": [
        {
          "internalType": "uint256",
          "name": "_matchId",
          "type": "uint256"
        }
      ],
      "name": "joinMatch",
      "outputs": [],
      "stateMutability": "payable",
      "type": "function"
    },
    {
      "inputs": [
        {
          "internalType": "uint256",
          "name": "_matchId",
          "type": "uint256"
        },
        {
          "internalType": "enum SkillWager.Result",
          "name": "_vote",
          "type": "uint8"
        }
      ],
      "name": "juryVote",
      "outputs": [],
      "stateMutability": "nonpayable",
      "type": "function"
    },
    {
      "inputs": [],
      "name": "matchIdCounter",
      "outputs": [
        {
          "internalType": "uint256",
          "name": "",
          "type": "uint256"
        }
      ],
      "stateMutability": "view",
      "type": "function"
    },
    {
      "inputs": [
        {
          "internalType": "uint256",
          "name": "",
          "type": "uint256"
        }
      ],
      "name": "matches",
      "outputs": [
        {
          "internalType": "uint256",
          "name": "id",
          "type": "uint256"
        },
        {
          "internalType": "address",
          "name": "playerA",
          "type": "address"
        },
        {
          "internalType": "address",
          "name": "playerB",
          "type": "address"
        },
        {
          "internalType": "uint256",
          "name": "wagerAmount",
          "type": "uint256"
        },
        {
          "internalType": "uint256",
          "name": "bondAmount",
          "type": "uint256"
        },
        {
          "internalType": "enum SkillWager.MatchState",
          "name": "state",
          "type": "uint8"
        },
        {
          "internalType": "enum SkillWager.Result",
          "name": "resultA",
          "type": "uint8"
        },
        {
          "internalType": "enum SkillWager.Result",
          "name": "resultB",
          "type": "uint8"
        },
        {
          "internalType": "uint256",
          "name": "lastActionTimestamp",
          "type": "uint256"
        },
        {
          "internalType": "uint256",
          "name": "votesForA",
          "type": "uint256"
        },
        {
          "internalType": "uint256",
          "name": "votesForB",
          "type": "uint256"
        },
        {
          "internalType": "bool",
          "name": "cancelVoteA",
          "type": "bool"
        },
        {
          "internalType": "bool",
          "name": "cancelVoteB",
          "type": "bool"
        }
      ],
      "stateMutability": "view",
      "type": "function"
    },
    {
      "inputs": [
        {
          "internalType": "uint256",
          "name": "",
          "type": "uint256"
        }
      ],
      "name": "mockJurors",
      "outputs": [
        {
          "internalType": "address",
          "name": "",
          "type": "address"
        }
      ],
      "stateMutability": "view",
      "type": "function"
    },
    {
      "inputs": [],
      "name": "owner",
      "outputs": [
        {
          "internalType": "address",
          "name": "",
          "type": "address"
        }
      ],
      "stateMutability": "view",
      "type": "function"
    },
    {
      "inputs": [],
      "name": "renounceOwnership",
      "outputs": [],
      "stateMutability": "nonpayable",
      "type": "function"
    },
    {
      "inputs": [
        {
          "internalType": "uint256",
          "name": "_matchId",
          "type": "uint256"
        },
        {
          "internalType": "enum SkillWager.Result",
          "name": "_result",
          "type": "uint8"
        }
      ],
      "name": "submitResult",
      "outputs": [],
      "stateMutability": "nonpayable",
      "type": "function"
    },
    {
      "inputs": [
        {
          "internalType": "address",
          "name": "newOwner",
          "type": "address"
        }
      ],
      "name": "transferOwnership",
      "outputs": [],
      "stateMutability": "nonpayable",
      "type": "function"
    },
    {
      "inputs": [
        {
          "internalType": "uint256",
          "name": "_matchId",
          "type": "uint256"
        }
      ],
      "name": "voteToCancel",
      "outputs": [],
      "stateMutability": "nonpayable",
      "type": "function"
    },
    {
      "inputs": [
        {
          "internalType": "uint256",
          "name": "_matchId",
          "type": "uint256"
        }
      ],
      "name": "withdrawPreMatch",
      "outputs": [],
      "stateMutability": "nonpayable",
      "type": "function"
    }
  ],
  "bytecode": "0x6080806040523461007f57600160005533156100695760018054336001600160a01b03198216811790925560405191906001600160a01b03167f8be0079c531659141344cd1fd0a4f28419497f9722a3daafe3b4186f6b6457e0600080a361152490816100858239f35b631e4fbdf760e01b815260006004820152602490fd5b600080fdfe60406080815260048036101561001457600080fd5b600091823560e01c80631318e27b14610d305780631e01fc2f14610b435780631f7e507e146108cd5780634768d4ef146107d55780634fdc2fb4146107b65780635a8fe26f14610741578063715018a6146106e45780637ca23b94146106c75780638da5cb5b1461069e5780638e9836b6146105915780638f52d9d41461054e578063afaec5271461052e578063eff53a6914610332578063f2fde38b146102a1578063f5a0ea6c146101f35763feb8c438146100d057600080fd5b60203660031901126101ef578135916100e761120f565b828452600360205260ff600583862001541660068110156101dc5761010c9015611232565b82845260036020528184209160018060a01b0360018401541633146101a15750610142610149916003840154908401549061119a565b34146111bd565b60028101336001600160601b0360a01b82541617905560058101600160ff1982541617905560064291015533907f50d6e5d288766a7340b6110b6738cac822c48c128a47399df2fad303041f8d508380a36001815580f35b906020606492519162461bcd60e51b83528201526015602482015274086c2dcdcdee840d4ded2dc40deeedc40dac2e8c6d605b1b6044820152fd5b634e487b7160e01b855260218252602485fd5b8280fd5b5090816003193601126101ef577fab8c9f12c79b09660cc1e067055451fdf910f3c9bf0349316c5bd5dd14619acc81359260243561022f61120f565b61023c610142828761119a565b6002549361024985611200565b6002558487526003602052818388209186835560018301336001600160601b0360a01b8254161790558760038401558201556005810160ff198154169055600642910155815194855260208501523393a36001815580f35b50346101ef5760203660031901126101ef576001600160a01b0382358181169391929084900361032e576102d361116e565b8315610318575050600154826001600160601b0360a01b821617600155167f8be0079c531659141344cd1fd0a4f28419497f9722a3daafe3b4186f6b6457e08380a380f35b51631e4fbdf760e01b8152908101849052602490fd5b8480fd5b5090346101ef5760208060031936011261052a578135928385526003825280852061037760018060a01b039182806001830154163314918215610519575b505061126e565b8486526003835260ff6005838820015416600681101561049f57600161039d9114611232565b8486526003835281862090600682015461012c8101809111610506574211156104cd57600560ff91600184015416331492836000146104be57828282015460081c16935b156104b257015460101c16905b600381101561049f5760010361046657600381101561045357610419578461041633866112a9565b80f35b5162461bcd60e51b815291820152601660248201527513dc1c1bdb995b9d08185b1c9958591e481858dd195960521b604482015260649150fd5b634e487b7160e01b865260218452602486fd5b505162461bcd60e51b8152918201526014602482015273135d5cdd0818db185a5b481dda5b88199a5c9cdd60621b604482015260649150fd5b634e487b7160e01b875260218552602487fd5b015460081c16906103ee565b828282015460101c16936103e1565b50505162461bcd60e51b8152918201526013602482015272151a5b595bdd5d081b9bdd081c995858da1959606a1b604482015260649150fd5b634e487b7160e01b885260118652602488fd5b600291925001541633148238610370565b8380fd5b83823461054a578160031936011261054a576020905160038152f35b5080fd5b50823461058e57602036600319011261058e578235925483101561058e5750610578602092611109565b905491519160018060a01b039160031b1c168152f35b80fd5b50346101ef5760203660031901126101ef578135916105ae61120f565b828452600360205260ff600583862001541660068110156101dc576105d39015611232565b828452600360205281842060018101546001600160a01b0316913383900361066c5785809361061d848395946005859601600560ff1982541617905560038201549101549061119a565b90828215610663575bf11561065857507f700135b4fe8746e2d2c85a9baa43c62887740aebfeb3a439f71a083fe5d567598280a26001815580f35b51913d9150823e3d90fd5b506108fc610626565b606490602085519162461bcd60e51b8352820152600c60248201526b27b7363c9031b932b0ba37b960a11b6044820152fd5b83823461054a578160031936011261054a5760015490516001600160a01b039091168152602090f35b83823461054a578160031936011261054a576020905161012c8152f35b833461058e578060031936011261058e576106fd61116e565b600180546001600160a01b0319811690915581906001600160a01b03167f8be0079c531659141344cd1fd0a4f28419497f9722a3daafe3b4186f6b6457e08280a380f35b82843461058e57602036600319011261058e576001600160a01b038235818116908190036101ef5761077161116e565b8354600160401b8110156107a35760018101855561078e90611109565b909283549160031b92831b921b191617905580f35b634e487b7160e01b845260418552602484fd5b83823461054a578160031936011261054a576020906002549051908152f35b50823461058e57602036600319011261058e5782358152600360205281812080549260018060a01b03928360018401541693600284015416906003840154878501549160058601549260ff841692600688015495600989015497600b600a8b01549a01549a81519c8d5260208d01528b015260608a0152608089015260068210156108ba576101a08860ff8989898961088f8a8a60a089015261088060c08901888360081c166110e6565b8660e089019160101c166110e6565b610100860152610120850152610140840152818116151561016084015260081c161515610180820152f35b634e487b7160e01b815260218952602490fd5b5090346101ef576108dd366110c2565b81859392935260206003815260ff60058688200154166006811015610b305760026109089114611232565b838652600381528486209461091d33866113e2565b15610b01576008860133885280835260ff82892054166003811015610abb57610ace5760038410159081610abb5760018514808015610aae575b15610a7c5782610a695715610a4857600988016109748154611200565b90555b338952835281882090610a3557916109c17f8ed593b386877faf4c9856297fea257c8cee329002d75c2fea35240030c9c54992879460ff1981541660ff88161790555180956110e6565b3393a3600783015460011c9060018201809211610a225750600983015481116109fb5750610416916001808060a01b039101541690611448565b600a8301541015610a0b57505080f35b61041691600260018060a01b039101541690611448565b634e487b7160e01b855260119052602484fd5b634e487b7160e01b885260218552602488fd5b889150600119850161097757600a8801610a628154611200565b9055610977565b634e487b7160e01b8a526021875260248afd5b835162461bcd60e51b8152808801869052600c60248201526b496e76616c696420766f746560a01b6044820152606490fd5b5089925060028614610957565b634e487b7160e01b895260218652602489fd5b815162461bcd60e51b8152808601849052600d60248201526c105b1c9958591e481d9bdd1959609a1b6044820152606490fd5b5162461bcd60e51b81529283015250600b60248201526a2737ba103090353ab937b960a91b6044820152606490fd5b634e487b7160e01b875260218452602487fd5b50346101ef5760203660031901126101ef57813591828452600360205281842090610b8760018060a01b039283806001830154163314918215610d1f57505061126e565b8385526003602052828520916005830160ff8154166006811015610d0c5760018114908115610d01575b5015610cca57908392916001889501828154163314600014610cb457600b8501805460ff191660011790555b600b85015460ff81169081610ca6575b50610bf6578580f35b8291600560ff19825416179055541692848080806003850197610c2089549887019889549061119a565b90828215610c9d575bf115610c935792610c4a85949385949360028695015416925490549061119a565b90828215610c8a575bf11561065857507f700135b4fe8746e2d2c85a9baa43c62887740aebfeb3a439f71a083fe5d567598280a238808281808080808580f35b506108fc610c53565b85513d86823e3d90fd5b506108fc610c29565b60ff915060081c1638610bed565b600b8501805461ff001916610100179055610bdd565b845162461bcd60e51b8152602081850152601160248201527043616e6e6f742063616e63656c206e6f7760781b6044820152606490fd5b600291501438610bb1565b634e487b7160e01b885260218452602488fd5b600291925001541633148338610370565b50346101ef57610d3f366110c2565b9290918285526003916020928084528287209260018060a01b0394610d776001958780888301541633149182156110b157505061126e565b86895282815260ff97886005848c2001541660068110156110245786610d9d9114611232565b878a52838252828a209084811015806110375787821480156110a5575b1561107157888884015416331460001461104a57600583019061103757805461ff001916600883901b61ff0016179055600591905b610dfb855180926110e6565b897f099c976edcaeebeac7aa3492983b6a1e1e59890b5b38376529ba0e35427fdc1e853393a34260068201550154888160081c168481101561102457899015159182610ffa575b5050610e4c578880f35b868952828152818920976005890190815490808260081c1686811015610fe75788811480610fbd575b15610e9b575050505050505050610e8f93015416906112a9565b38808080808080808880f35b969795966002149081610f93575b5015610eca57505050505050506002610ec593015416906112a9565b610e8f565b60ff191660021790558689528390528720949550919391929160070186845b610f1d575b5050505050507f0715daac82f9b9aa17ddece2f059d6667b3fe54f36bcc4571221f96a00a5b5aa8280a2610e8f565b8554811015610f8e5783610f3082611109565b905490851b1c168254600160401b811015610f7b5791610f7391610f5c84898098979601865585611156565b888293925491881b92831b921b1916179055611200565b909192610ee9565b634e487b7160e01b8a526041885260248afd5b610eee565b90508160101c1686811015610faa57851438610ea9565b634e487b7160e01b8c526021885260248cfd5b50818360101c1687811015610fd457600214610e75565b634e487b7160e01b8e526021895260248efd5b634e487b7160e01b8d526021885260248dfd5b60101c169050838110156110115715158838610e42565b634e487b7160e01b8a526021855260248afd5b634e487b7160e01b8b526021865260248bfd5b634e487b7160e01b8c526021875260248cfd5b600583019061103757805462ff00001916601083901b62ff00001617905560059190610def565b845162461bcd60e51b8152808801859052600e60248201526d125b9d985b1a59081c995cdd5b1d60921b6044820152606490fd5b50508a60028214610dba565b600291925001541633148738610370565b60409060031901126110e1576004359060243560038110156110e15790565b600080fd5b9060038210156110f35752565b634e487b7160e01b600052602160045260246000fd5b6004548110156111405760046000527f8a35acfbc15ff81a39ae7d344fd709f28e8600b4aa8c65c6b64bfe7fe36bd19b0190600090565b634e487b7160e01b600052603260045260246000fd5b80548210156111405760005260206000200190600090565b6001546001600160a01b0316330361118257565b60405163118cdaa760e01b8152336004820152602490fd5b919082018092116111a757565b634e487b7160e01b600052601160045260246000fd5b156111c457565b60405162461bcd60e51b8152602060048201526014602482015273125b98dbdc9c9958dd081d985b1d59481cd95b9d60621b6044820152606490fd5b60001981146111a75760010190565b600260005414611220576002600055565b604051633ee5aeb560e01b8152600490fd5b1561123957565b60405162461bcd60e51b815260206004820152600d60248201526c496e76616c696420737461746560981b6044820152606490fd5b1561127557565b60405162461bcd60e51b815260206004820152600c60248201526b2737ba103090383630bcb2b960a11b6044820152606490fd5b60008181526003602052604081209260058401600460ff1982541617905560038401548060011b90808204600214901517156113ce576004850154918260011b918315928481046002148417156113ba5781611309869261130f9461119a565b5061119a565b60018701546001600160a01b03928316978691829182918291879182168d81036113b157506002015416945b8b8282156113a8575bf11561139d5784938493849384938492611393575b1690f11561138757807f1c560e9f349cd346794f9d534fb852628d58cc7a726d0adb57820fae0a50cd4791a3565b604051903d90823e3d90fd5b6108fc9250611359565b6040513d86823e3d90fd5b506108fc611344565b9150509461133b565b634e487b7160e01b86526011600452602486fd5b634e487b7160e01b83526011600452602483fd5b600052600390816020526040600020916007600093018054935b84811061140d575050505050600090565b6114178183611156565b905490841b1c6001600160a01b039081169085161461143e5761143990611200565b6113fc565b5050505050600190565b600081815260036020526040812060058101600460ff198254161790556003810154908160011b91808304600214901517156113ce5760040154908160011b91808304600214901517156113ce5782806114a48194829461119a565b6001600160a01b0390971696878282156114e5575bf11561138757807f1c560e9f349cd346794f9d534fb852628d58cc7a726d0adb57820fae0a50cd4791a3565b506108fc6114b956fea264697066735822122005ffcf26a7fbf43661e1f7aedf4ccc9163c5ae0752c8b071bbd7b185b218bf4164736f6c63430008140033",
  "linkReferences": {},
  "deployedLinkReferences": {}
}